{
  "address": "0x9b75fa0c8baa2A05F0bA700D8D742CdABD5e2781",
  "abi": [
    {
      "inputs": [
        {
          "internalType": "contract LyraVault",
          "name": "_vault",
          "type": "address"
        },
        {
          "internalType": "enum LyraAdapter.OptionType",
          "name": "_optionType",
          "type": "uint8"
        }
      ],
      "stateMutability": "nonpayable",
      "type": "constructor"
    },
    {
      "inputs": [
        {
          "internalType": "address",
          "name": "thrower",
          "type": "address"
        },
        {
          "internalType": "uint256",
          "name": "baseExpected",
          "type": "uint256"
        },
        {
          "internalType": "uint256",
          "name": "baseReceived",
          "type": "uint256"
        }
      ],
      "name": "ExchangerBaseReceivedTooLow",
      "type": "error"
    },
    {
      "inputs": [
        {
          "internalType": "address",
          "name": "thrower",
          "type": "address"
        },
        {
          "internalType": "uint256",
          "name": "quoteExpected",
          "type": "uint256"
        },
        {
          "internalType": "uint256",
          "name": "quoteReceived",
          "type": "uint256"
        }
      ],
      "name": "ExchangerQuoteReceivedTooLow",
      "type": "error"
    },
    {
      "anonymous": false,
      "inputs": [
        {
          "indexed": true,
          "internalType": "address",
          "name": "previousOwner",
          "type": "address"
        },
        {
          "indexed": true,
          "internalType": "address",
          "name": "newOwner",
          "type": "address"
        }
      ],
      "name": "OwnershipTransferred",
      "type": "event"
    },
    {
      "inputs": [
        {
          "internalType": "uint256",
          "name": "expiry",
          "type": "uint256"
        }
      ],
      "name": "_isValidExpiry",
      "outputs": [
        {
          "internalType": "bool",
          "name": "isValid",
          "type": "bool"
        }
      ],
      "stateMutability": "view",
      "type": "function"
    },
    {
      "inputs": [
        {
          "internalType": "uint256",
          "name": "strikeId",
          "type": "uint256"
        },
        {
          "internalType": "uint256",
          "name": "secondsAgo",
          "type": "uint256"
        }
      ],
      "name": "_optionPriceGWAV",
      "outputs": [
        {
          "internalType": "uint256",
          "name": "callPrice",
          "type": "uint256"
        },
        {
          "internalType": "uint256",
          "name": "putPrice",
          "type": "uint256"
        }
      ],
      "stateMutability": "view",
      "type": "function"
    },
    {
      "inputs": [],
      "name": "activeExpiry",
      "outputs": [
        {
          "internalType": "uint256",
          "name": "",
          "type": "uint256"
        }
      ],
      "stateMutability": "view",
      "type": "function"
    },
    {
      "inputs": [
        {
          "internalType": "uint256",
          "name": "",
          "type": "uint256"
        }
      ],
      "name": "activeStrikeIds",
      "outputs": [
        {
          "internalType": "uint256",
          "name": "",
          "type": "uint256"
        }
      ],
      "stateMutability": "view",
      "type": "function"
    },
    {
      "inputs": [],
      "name": "baseAsset",
      "outputs": [
        {
          "internalType": "contract IERC20",
          "name": "",
          "type": "address"
        }
      ],
      "stateMutability": "view",
      "type": "function"
    },
    {
      "inputs": [],
      "name": "collateralAsset",
      "outputs": [
        {
          "internalType": "contract IERC20",
          "name": "",
          "type": "address"
        }
      ],
      "stateMutability": "view",
      "type": "function"
    },
    {
      "inputs": [],
      "name": "curveSwap",
      "outputs": [
        {
          "internalType": "contract ICurve",
          "name": "",
          "type": "address"
        }
      ],
      "stateMutability": "view",
      "type": "function"
    },
    {
      "inputs": [
        {
          "internalType": "uint256",
          "name": "strikeId",
          "type": "uint256"
        },
        {
          "internalType": "address",
          "name": "lyraRewardRecipient",
          "type": "address"
        }
      ],
      "name": "doTrade",
      "outputs": [
        {
          "internalType": "uint256",
          "name": "positionId",
          "type": "uint256"
        },
        {
          "internalType": "uint256",
          "name": "premiumReceived",
          "type": "uint256"
        },
        {
          "internalType": "uint256",
          "name": "collateralToAdd",
          "type": "uint256"
        }
      ],
      "stateMutability": "nonpayable",
      "type": "function"
    },
    {
      "inputs": [
        {
          "internalType": "address",
          "name": "lyraRewardRecipient",
          "type": "address"
        }
      ],
      "name": "emergencyCloseAll",
      "outputs": [],
      "stateMutability": "nonpayable",
      "type": "function"
    },
    {
      "inputs": [],
      "name": "feeCounter",
      "outputs": [
        {
          "internalType": "contract BasicFeeCounter",
          "name": "",
          "type": "address"
        }
      ],
      "stateMutability": "view",
      "type": "function"
    },
    {
      "inputs": [
        {
          "components": [
            {
              "internalType": "uint256",
              "name": "positionId",
              "type": "uint256"
            },
            {
              "internalType": "uint256",
              "name": "strikeId",
              "type": "uint256"
            },
            {
              "internalType": "enum LyraAdapter.OptionType",
              "name": "optionType",
              "type": "uint8"
            },
            {
              "internalType": "uint256",
              "name": "amount",
              "type": "uint256"
            },
            {
              "internalType": "uint256",
              "name": "collateral",
              "type": "uint256"
            },
            {
              "internalType": "enum LyraAdapter.PositionState",
              "name": "state",
              "type": "uint8"
            }
          ],
          "internalType": "struct LyraAdapter.OptionPosition",
          "name": "position",
          "type": "tuple"
        },
        {
          "internalType": "uint256",
          "name": "strikePrice",
          "type": "uint256"
        },
        {
          "internalType": "uint256",
          "name": "strikeExpiry",
          "type": "uint256"
        }
      ],
      "name": "getAllowedCloseAmount",
      "outputs": [
        {
          "internalType": "uint256",
          "name": "closeAmount",
          "type": "uint256"
        }
      ],
      "stateMutability": "view",
      "type": "function"
    },
    {
      "inputs": [
        {
          "components": [
            {
              "internalType": "uint256",
              "name": "id",
              "type": "uint256"
            },
            {
              "internalType": "uint256",
              "name": "expiry",
              "type": "uint256"
            },
            {
              "internalType": "uint256",
              "name": "strikePrice",
              "type": "uint256"
            },
            {
              "internalType": "uint256",
              "name": "skew",
              "type": "uint256"
            },
            {
              "internalType": "uint256",
              "name": "boardIv",
              "type": "uint256"
            }
          ],
          "internalType": "struct LyraAdapter.Strike",
          "name": "strike",
          "type": "tuple"
        }
      ],
      "name": "getRequiredCollateral",
      "outputs": [
        {
          "internalType": "uint256",
          "name": "collateralToAdd",
          "type": "uint256"
        },
        {
          "internalType": "uint256",
          "name": "setCollateralTo",
          "type": "uint256"
        }
      ],
      "stateMutability": "view",
      "type": "function"
    },
    {
      "inputs": [],
      "name": "greekCache",
      "outputs": [
        {
          "internalType": "contract OptionGreekCache",
          "name": "",
          "type": "address"
        }
      ],
      "stateMutability": "view",
      "type": "function"
    },
    {
      "inputs": [],
      "name": "gwavOracle",
      "outputs": [
        {
          "internalType": "contract GWAVOracle",
          "name": "",
          "type": "address"
        }
      ],
      "stateMutability": "view",
      "type": "function"
    },
    {
      "inputs": [
        {
          "internalType": "address",
          "name": "_lyraRegistry",
          "type": "address"
        },
        {
          "internalType": "address",
          "name": "_optionMarket",
          "type": "address"
        },
        {
          "internalType": "address",
          "name": "_curveSwap",
          "type": "address"
        },
        {
          "internalType": "address",
          "name": "_feeCounter",
          "type": "address"
        }
      ],
      "name": "initAdapter",
      "outputs": [],
      "stateMutability": "nonpayable",
      "type": "function"
    },
    {
      "inputs": [
        {
          "components": [
            {
              "internalType": "uint256",
              "name": "id",
              "type": "uint256"
            },
            {
              "internalType": "uint256",
              "name": "expiry",
              "type": "uint256"
            },
            {
              "internalType": "uint256",
              "name": "strikePrice",
              "type": "uint256"
            },
            {
              "internalType": "uint256",
              "name": "skew",
              "type": "uint256"
            },
            {
              "internalType": "uint256",
              "name": "boardIv",
              "type": "uint256"
            }
          ],
          "internalType": "struct LyraAdapter.Strike",
          "name": "strike",
          "type": "tuple"
        }
      ],
      "name": "isValidStrike",
      "outputs": [
        {
          "internalType": "bool",
          "name": "isValid",
          "type": "bool"
        }
      ],
      "stateMutability": "view",
      "type": "function"
    },
    {
      "inputs": [
        {
          "internalType": "uint256",
          "name": "",
          "type": "uint256"
        }
      ],
      "name": "lastTradeTimestamp",
      "outputs": [
        {
          "internalType": "uint256",
          "name": "",
          "type": "uint256"
        }
      ],
      "stateMutability": "view",
      "type": "function"
    },
    {
      "inputs": [],
      "name": "liquidityPool",
      "outputs": [
        {
          "internalType": "contract LiquidityPool",
          "name": "",
          "type": "address"
        }
      ],
      "stateMutability": "view",
      "type": "function"
    },
    {
      "inputs": [],
      "name": "lyraRegistry",
      "outputs": [
        {
          "internalType": "contract LyraRegistry",
          "name": "",
          "type": "address"
        }
      ],
      "stateMutability": "view",
      "type": "function"
    },
    {
      "inputs": [],
      "name": "optionMarket",
      "outputs": [
        {
          "internalType": "contract OptionMarket",
          "name": "",
          "type": "address"
        }
      ],
      "stateMutability": "view",
      "type": "function"
    },
    {
      "inputs": [],
      "name": "optionPricer",
      "outputs": [
        {
          "internalType": "contract OptionMarketPricer",
          "name": "",
          "type": "address"
        }
      ],
      "stateMutability": "view",
      "type": "function"
    },
    {
      "inputs": [],
      "name": "optionToken",
      "outputs": [
        {
          "internalType": "contract OptionToken",
          "name": "",
          "type": "address"
        }
      ],
      "stateMutability": "view",
      "type": "function"
    },
    {
      "inputs": [],
      "name": "optionType",
      "outputs": [
        {
          "internalType": "enum LyraAdapter.OptionType",
          "name": "",
          "type": "uint8"
        }
      ],
      "stateMutability": "view",
      "type": "function"
    },
    {
      "inputs": [],
      "name": "owner",
      "outputs": [
        {
          "internalType": "address",
          "name": "",
          "type": "address"
        }
      ],
      "stateMutability": "view",
      "type": "function"
    },
    {
      "inputs": [],
      "name": "quoteAsset",
      "outputs": [
        {
          "internalType": "contract IERC20",
          "name": "",
          "type": "address"
        }
      ],
      "stateMutability": "view",
      "type": "function"
    },
    {
      "inputs": [
        {
          "internalType": "uint256",
          "name": "positionId",
          "type": "uint256"
        },
        {
          "internalType": "uint256",
          "name": "closeAmount",
          "type": "uint256"
        },
        {
          "internalType": "address",
          "name": "lyraRewardRecipient",
          "type": "address"
        }
      ],
      "name": "reducePosition",
      "outputs": [],
      "stateMutability": "nonpayable",
      "type": "function"
    },
    {
      "inputs": [],
      "name": "renounceOwnership",
      "outputs": [],
      "stateMutability": "nonpayable",
      "type": "function"
    },
    {
      "inputs": [],
      "name": "returnFundsAndClearStrikes",
      "outputs": [],
      "stateMutability": "nonpayable",
      "type": "function"
    },
    {
      "inputs": [
        {
          "internalType": "uint256",
          "name": "boardId",
          "type": "uint256"
        }
      ],
      "name": "setBoard",
      "outputs": [],
      "stateMutability": "nonpayable",
      "type": "function"
    },
    {
      "inputs": [
        {
          "internalType": "address",
          "name": "_lyraRegistry",
          "type": "address"
        },
        {
          "internalType": "address",
          "name": "_optionMarket",
          "type": "address"
        },
        {
          "internalType": "address",
          "name": "_curveSwap",
          "type": "address"
        },
        {
          "internalType": "address",
          "name": "_feeCounter",
          "type": "address"
        }
      ],
      "name": "setLyraAddresses",
      "outputs": [],
      "stateMutability": "nonpayable",
      "type": "function"
    },
    {
      "inputs": [
        {
          "components": [
            {
              "internalType": "uint256",
              "name": "minTimeToExpiry",
              "type": "uint256"
            },
            {
              "internalType": "uint256",
              "name": "maxTimeToExpiry",
              "type": "uint256"
            },
            {
              "internalType": "int256",
              "name": "targetDelta",
              "type": "int256"
            },
            {
              "internalType": "uint256",
              "name": "maxDeltaGap",
              "type": "uint256"
            },
            {
              "internalType": "uint256",
              "name": "minVol",
              "type": "uint256"
            },
            {
              "internalType": "uint256",
              "name": "maxVol",
              "type": "uint256"
            },
            {
              "internalType": "uint256",
              "name": "size",
              "type": "uint256"
            },
            {
              "internalType": "uint256",
              "name": "minTradeInterval",
              "type": "uint256"
            },
            {
              "internalType": "uint256",
              "name": "maxVolVariance",
              "type": "uint256"
            },
            {
              "internalType": "uint256",
              "name": "gwavPeriod",
              "type": "uint256"
            },
            {
              "internalType": "uint256",
              "name": "collatBuffer",
              "type": "uint256"
            },
            {
              "internalType": "uint256",
              "name": "collatPercent",
              "type": "uint256"
            }
          ],
          "internalType": "struct DeltaShortStrategy.DeltaShortStrategyDetail",
          "name": "_deltaStrategy",
          "type": "tuple"
        }
      ],
      "name": "setStrategyDetail",
      "outputs": [],
      "stateMutability": "nonpayable",
      "type": "function"
    },
    {
      "inputs": [],
      "name": "shortCollateral",
      "outputs": [
        {
          "internalType": "contract ShortCollateral",
          "name": "",
          "type": "address"
        }
      ],
      "stateMutability": "view",
      "type": "function"
    },
    {
      "inputs": [],
      "name": "strategyDetail",
      "outputs": [
        {
          "internalType": "uint256",
          "name": "minTimeToExpiry",
          "type": "uint256"
        },
        {
          "internalType": "uint256",
          "name": "maxTimeToExpiry",
          "type": "uint256"
        },
        {
          "internalType": "int256",
          "name": "targetDelta",
          "type": "int256"
        },
        {
          "internalType": "uint256",
          "name": "maxDeltaGap",
          "type": "uint256"
        },
        {
          "internalType": "uint256",
          "name": "minVol",
          "type": "uint256"
        },
        {
          "internalType": "uint256",
          "name": "maxVol",
          "type": "uint256"
        },
        {
          "internalType": "uint256",
          "name": "size",
          "type": "uint256"
        },
        {
          "internalType": "uint256",
          "name": "minTradeInterval",
          "type": "uint256"
        },
        {
          "internalType": "uint256",
          "name": "maxVolVariance",
          "type": "uint256"
        },
        {
          "internalType": "uint256",
          "name": "gwavPeriod",
          "type": "uint256"
        },
        {
          "internalType": "uint256",
          "name": "collatBuffer",
          "type": "uint256"
        },
        {
          "internalType": "uint256",
          "name": "collatPercent",
          "type": "uint256"
        }
      ],
      "stateMutability": "view",
      "type": "function"
    },
    {
      "inputs": [
        {
          "internalType": "uint256",
          "name": "",
          "type": "uint256"
        }
      ],
      "name": "strikeToPositionId",
      "outputs": [
        {
          "internalType": "uint256",
          "name": "",
          "type": "uint256"
        }
      ],
      "stateMutability": "view",
      "type": "function"
    },
    {
      "inputs": [
        {
          "internalType": "address",
          "name": "newOwner",
          "type": "address"
        }
      ],
      "name": "transferOwnership",
      "outputs": [],
      "stateMutability": "nonpayable",
      "type": "function"
    },
    {
      "inputs": [],
      "name": "updateDelegateApproval",
      "outputs": [],
      "stateMutability": "nonpayable",
      "type": "function"
    },
    {
      "inputs": [],
      "name": "vault",
      "outputs": [
        {
          "internalType": "contract LyraVault",
          "name": "",
          "type": "address"
        }
      ],
      "stateMutability": "view",
      "type": "function"
    }
  ],
  "transactionHash": "0xf36393ec69350e5003ffa22fc1a6abbc7e484d4119c6e70fe6b4ad6ef15b4ed7",
  "args": [
    "0xF7D044D582666634A03EC7083d7a4EE439FBcef7",
    4
  ],
  "numDeployments": 1,
  "solcInputHash": "80ed7d4eac10dd586e35c921f701831d",
  "bytecode": "0x60c06040523480156200001157600080fd5b5060405162004c1838038062004c188339810160408190526200003491620000d8565b8181620000413362000088565b6001600160a01b03821660805280600481111562000063576200006362000125565b60a08160048111156200007a576200007a62000125565b81525050505050506200013b565b600080546001600160a01b038381166001600160a01b0319831681178455604051919092169283917f8be0079c531659141344cd1fd0a4f28419497f9722a3daafe3b4186f6b6457e09190a35050565b60008060408385031215620000ec57600080fd5b82516001600160a01b03811681146200010457600080fd5b6020840151909250600581106200011a57600080fd5b809150509250929050565b634e487b7160e01b600052602160045260246000fd5b60805160a051614a32620001e66000396000818161054301528181611d7701528181611db20152818161215401528181612211015281816124e80152612af60152600081816104f60152818161079501528181610954015281816109fb01528181610c1901528181610e5a01528181610f0501528181610fd1015281816110d40152818161113f015281816112c8015281816113e10152818161278801526128640152614a326000f3fe608060405234801561001057600080fd5b50600436106101b75760003560e01c806303c4d3d6146101bc578063131b2f86146101d85780632a37ad5a146101f85780632bab754b1461028757806338b74054146102a7578063478620c0146102ba57806354f1e01f146102dd57806357949815146103055780635a3c76ab146103185780635cf035491461032d578063619a84cc14610340578063621318cd14610348578063665a11ca1461035b5780637083a9041461036e578063715018a6146103815780637dd0db1b1461038957806383cea5421461039c578063870dcaeb146103a45780638da5cb5b146103b7578063a65be9ba146103bf578063a8c379c2146103d2578063aabaecd614610400578063ae74fc4d14610413578063b5ca94a014610426578063bb4a9f8814610439578063bc4e44051461044c578063cae1c5821461045f578063cdf456e114610472578063d4aaa9eb14610485578063d8fca1ac146104a5578063dffcf353146104b8578063ee9e0e6a146104cb578063f2fde38b146104de578063fbfa77cf146104f1578063fdf262b714610518578063ffcd00ac1461052b578063ffd9eedb1461053e575b600080fd5b6101c5601e5481565b6040519081526020015b60405180910390f35b6101c56101e6366004613aff565b600f6020526000908152604090205481565b601254601354601454601554601654601754601854601954601a54601b54601c54601d5461022e9b9a999897969594939291908c565b604080519c8d5260208d019b909b52998b019890985260608a0196909652608089019490945260a088019290925260c087015260e0860152610100850152610120840152610140830152610160820152610180016101cf565b60045461029a906001600160a01b031681565b6040516101cf9190613b18565b60095461029a906001600160a01b031681565b6102cd6102c8366004613c48565b610572565b60405190151581526020016101cf565b6102f06102eb366004613c48565b61065f565b604080519283526020830191909152016101cf565b600d5461029a906001600160a01b031681565b61032b610326366004613c98565b610759565b005b61032b61033b366004613d4c565b6108f1565b61032b610aca565b6102cd610356366004613aff565b610be4565b60055461029a906001600160a01b031681565b61032b61037c366004613da8565b610c0e565b61032b610f8b565b61032b610397366004613de1565b610fc6565b61032b6110c9565b60065461029a906001600160a01b031681565b61029a611121565b60075461029a906001600160a01b031681565b6103e56103e0366004613dfe565b611130565b604080519384526020840192909252908201526060016101cf565b600e5461029a906001600160a01b031681565b61032b610421366004613aff565b6113d6565b61032b610434366004613d4c565b61147e565b60035461029a906001600160a01b031681565b6101c561045a366004613aff565b6118dd565b60085461029a906001600160a01b031681565b600b5461029a906001600160a01b031681565b6101c5610493366004613aff565b60116020526000908152604090205481565b600c5461029a906001600160a01b031681565b6102f06104c6366004613e2e565b6118fe565b60015461029a906001600160a01b031681565b61032b6104ec366004613de1565b611990565b61029a7f000000000000000000000000000000000000000000000000000000000000000081565b600a5461029a906001600160a01b031681565b6101c5610539366004613e6a565b611a2d565b6105657f000000000000000000000000000000000000000000000000000000000000000081565b6040516101cf9190613f2b565b60008160200151601e541461058957506000919050565b60006105988360000151611aa6565b905060006105a582611aed565b6000815181106105b7576105b7613f3e565b6020026020010151905060006105cc83611c40565b6000815181106105de576105de613f3e565b6020026020010151905060006105f2611d71565b610611576106026012600a61404e565b61060c908361405a565b610613565b815b905060006106308260126002015461062b919061405a565b611df4565b601654909150841080159061064757506017548411155b8015610654575060155481105b979650505050505050565b601854600090819081610670611e14565b8551600090815260116020526040812054919250908190156106db5786516000908152601160205260408120546106af906106aa90611aa6565b611ee7565b6000815181106106c1576106c1613f3e565b602002602001015190508060800151915080606001519250505b600061070088604001518960200151866000015188876106fb9190614099565b61214c565b905060006107216012600b015461071b8b60400151896121b6565b906121d3565b61072b9084614099565b905061074061073a83836121f5565b846121f5565b965061074c83886140b1565b9750505050505050915091565b33610762611121565b6001600160a01b0316146107915760405162461bcd60e51b8152600401610788906140c8565b60405180910390fd5b60007f00000000000000000000000000000000000000000000000000000000000000006001600160a01b0316632728f3336040518163ffffffff1660e01b81526004016101006040518083038186803b1580156107ed57600080fd5b505afa158015610801573d6000803e3d6000fd5b505050506040513d601f19601f82011682018060405250810190610825919061413b565b975050505050505050801561088e5760405162461bcd60e51b815260206004820152602960248201527f63616e6e6f74206368616e676520737472617465677920696620726f756e642060448201526869732061637469766560b81b6064820152608401610788565b508051601255602081015160135560408101516014556060810151601555608081015160165560a081015160175560c081015160185560e0810151601955610100810151601a55610120810151601b55610140810151601c556101600151601d55565b336108fa611121565b6001600160a01b0316146109205760405162461bcd60e51b8152600401610788906140c8565b61092c8484848461147e565b600a5460405163095ea7b360e01b81526001600160a01b039091169063095ea7b390610980907f000000000000000000000000000000000000000000000000000000000000000090600019906004016141cd565b602060405180830381600087803b15801561099a57600080fd5b505af11580156109ae573d6000803e3d6000fd5b505050506040513d601f19601f820116820180604052508101906109d291906141e6565b50600b5460405163095ea7b360e01b81526001600160a01b039091169063095ea7b390610a27907f000000000000000000000000000000000000000000000000000000000000000090600019906004016141cd565b602060405180830381600087803b158015610a4157600080fd5b505af1158015610a55573d6000803e3d6000fd5b505050506040513d601f19601f82011682018060405250810190610a7991906141e6565b50610a8261220b565b610a9757600a546001600160a01b0316610aa4565b600b546001600160a01b03165b600e80546001600160a01b0319166001600160a01b039290921691909117905550505050565b33610ad3611121565b6001600160a01b031614610af95760405162461bcd60e51b8152600401610788906140c8565b600260009054906101000a90046001600160a01b03166001600160a01b0316633535c97b6040518163ffffffff1660e01b815260040160206040518083038186803b158015610b4757600080fd5b505afa158015610b5b573d6000803e3d6000fd5b505050506040513d601f19601f82011682018060405250810190610b7f9190614201565b60025460405163447fbc6360e01b81526001600160a01b039283169263447fbc6392610bb092911690600401613b18565b600060405180830381600087803b158015610bca57600080fd5b505af1158015610bde573d6000803e3d6000fd5b50505050565b600080610bf083612252565b6012549091508110801590610c0757506013548111155b9392505050565b336001600160a01b037f00000000000000000000000000000000000000000000000000000000000000001614610c565760405162461bcd60e51b81526004016107889061421e565b6000610c646106aa85611aa6565b600081518110610c7657610c76613f3e565b602002602001015190506000610c97610c928360200151611aa6565b6122a2565b600081518110610ca957610ca9613f3e565b602002602001015190508460116000846020015181526020019081526020016000205414610d0e5760405162461bcd60e51b81526020600482015260126024820152711a5b9d985b1a59081c1bdcda5d1a5bdb925960721b6044820152606401610788565b610d218282604001518360200151611a2d565b841115610d7c5760405162461bcd60e51b815260206004820152602360248201527f616d6f756e74206578636565647320616c6c6f77656420636c6f736520616d6f6044820152621d5b9d60ea1b6064820152608401610788565b6000610d9382601260050154601260060154612448565b9050610da38386600084886124a1565b610dab61220b565b15610edd57600b546040516370a0823160e01b81526000916001600160a01b0316906370a0823190610de1903090600401613b18565b60206040518083038186803b158015610df957600080fd5b505afa158015610e0d573d6000803e3d6000fd5b505050506040513d601f19601f82011682018060405250810190610e319190614242565b600b5460405163a9059cbb60e01b81529192506001600160a01b03169063a9059cbb90610e84907f00000000000000000000000000000000000000000000000000000000000000009085906004016141cd565b602060405180830381600087803b158015610e9e57600080fd5b505af1158015610eb2573d6000803e3d6000fd5b505050506040513d601f19601f82011682018060405250810190610ed691906141e6565b5050610f83565b600a5460405163a9059cbb60e01b81526001600160a01b039091169063a9059cbb90610f2f907f00000000000000000000000000000000000000000000000000000000000000009089906004016141cd565b602060405180830381600087803b158015610f4957600080fd5b505af1158015610f5d573d6000803e3d6000fd5b505050506040513d601f19601f82011682018060405250810190610f8191906141e6565b505b505050505050565b33610f94611121565b6001600160a01b031614610fba5760405162461bcd60e51b8152600401610788906140c8565b610fc460006125c2565b565b336001600160a01b037f0000000000000000000000000000000000000000000000000000000000000000161461100e5760405162461bcd60e51b81526004016107889061421e565b60005b6010548110156110bd5760006010828154811061103057611030613f3e565b90600052602060002001549050600061105e6106aa6011600085815260200190815260200160002054611aa6565b60008151811061107057611070613f3e565b6020026020010151905061108e8182606001516000600019886124a1565b506000908152601160209081526040808320839055600f909152812055806110b58161425b565b915050611011565b506110c6612612565b50565b336001600160a01b037f000000000000000000000000000000000000000000000000000000000000000016146111115760405162461bcd60e51b81526004016107889061421e565b611119612612565b610fc4612900565b6000546001600160a01b031690565b60008080336001600160a01b037f0000000000000000000000000000000000000000000000000000000000000000161461117c5760405162461bcd60e51b81526004016107889061421e565b6019546000868152600f6020526040902054429161119991614099565b11156111e65760405162461bcd60e51b815260206004820152601c60248201527b1b5a5b881d1a5b59481a5b9d195c9d985b081b9bdd081c185cdcd95960221b6044820152606401610788565b6111ef85612a26565b6112335760405162461bcd60e51b81526020600482015260156024820152741d9bdb081d985c9a585b98d948195e18d959591959605a1b6044820152606401610788565b6000611241610c9287611aa6565b60008151811061125357611253613f3e565b6020026020010151905061126681610572565b6112a35760405162461bcd60e51b815260206004820152600e60248201526d696e76616c696420737472696b6560901b6044820152606401610788565b60006112ae8261065f565b600e546040516323b872dd60e01b81526001600160a01b037f0000000000000000000000000000000000000000000000000000000000000000811660048301523060248301526044820185905293965091935091909116906323b872dd90606401602060405180830381600087803b15801561132957600080fd5b505af115801561133d573d6000803e3d6000fd5b505050506040513d601f19601f8201168201806040525081019061136191906141e6565b6113bb5760405162461bcd60e51b815260206004820152602560248201527f636f6c6c61746572616c207472616e736665722066726f6d207661756c742066604482015264185a5b195960da1b6064820152608401610788565b6113c6828288612a99565b9098909750929550919350505050565b336001600160a01b037f0000000000000000000000000000000000000000000000000000000000000000161461141e5760405162461bcd60e51b81526004016107889061421e565b600061142982612bff565b90506114388160200151610be4565b6114745760405162461bcd60e51b815260206004820152600d60248201526c1a5b9d985b1a5908189bd85c99609a1b6044820152606401610788565b60200151601e5550565b33611487611121565b6001600160a01b0316146114ad5760405162461bcd60e51b8152600401610788906140c8565b600a546001600160a01b03161561154957600a5460035460405163095ea7b360e01b81526001600160a01b039283169263095ea7b3926114f5929116906000906004016141cd565b602060405180830381600087803b15801561150f57600080fd5b505af1158015611523573d6000803e3d6000fd5b505050506040513d601f19601f8201168201806040525081019061154791906141e6565b505b600b546001600160a01b0316156115e557600b5460035460405163095ea7b360e01b81526001600160a01b039283169263095ea7b392611591929116906000906004016141cd565b602060405180830381600087803b1580156115ab57600080fd5b505af11580156115bf573d6000803e3d6000fd5b505050506040513d601f19601f820116820180604052508101906115e391906141e6565b505b600380546001600160a01b038581166001600160a01b031992831617909255600180549287169290911682179055604051623f970360e91b81527029aca72a2422aa24ac2fa0a220a82a22a960791b6004820152637f2e06009060240160206040518083038186803b15801561165a57600080fd5b505afa15801561166e573d6000803e3d6000fd5b505050506040513d601f19601f820116820180604052508101906116929190614201565b600280546001600160a01b0319166001600160a01b03929092169190911790556116ba612cde565b600c80546001600160a01b038085166001600160a01b031992831617909255600d8054848416921691909117905560025460408051633535c97b60e01b815290519190921691633535c97b916004808301926020929190829003018186803b15801561172557600080fd5b505afa158015611739573d6000803e3d6000fd5b505050506040513d601f19601f8201168201806040525081019061175d9190614201565b60025460405163447fbc6360e01b81526001600160a01b039283169263447fbc639261178e92911690600401613b18565b600060405180830381600087803b1580156117a857600080fd5b505af11580156117bc573d6000803e3d6000fd5b5050600a5460035460405163095ea7b360e01b81526001600160a01b03928316945063095ea7b393506117f99290911690600019906004016141cd565b602060405180830381600087803b15801561181357600080fd5b505af1158015611827573d6000803e3d6000fd5b505050506040513d601f19601f8201168201806040525081019061184b91906141e6565b50600b5460035460405163095ea7b360e01b81526001600160a01b039283169263095ea7b39261188492911690600019906004016141cd565b602060405180830381600087803b15801561189e57600080fd5b505af11580156118b2573d6000803e3d6000fd5b505050506040513d601f19601f820116820180604052508101906118d691906141e6565b5050505050565b601081815481106118ed57600080fd5b600091825260209091200154905081565b60075460405163ca4ca66760e01b8152600481018490526024810183905260009182916001600160a01b039091169063ca4ca66790604401604080518083038186803b15801561194d57600080fd5b505afa158015611961573d6000803e3d6000fd5b505050506040513d601f19601f820116820180604052508101906119859190614276565b915091509250929050565b33611999611121565b6001600160a01b0316146119bf5760405162461bcd60e51b8152600401610788906140c8565b6001600160a01b038116611a245760405162461bcd60e51b815260206004820152602660248201527f4f776e61626c653a206e6577206f776e657220697320746865207a65726f206160448201526564647265737360d01b6064820152608401610788565b6110c6816125c2565b600080611a38611e14565b90506000611a5485858460000151670de0b6b3a764000061214c565b9050611a6d8660600151826121d390919063ffffffff16565b866080015110611a7e576000611a9c565b6080860151611a8d9082612e18565b8660600151611a9c91906140b1565b9695505050505050565b604080516001808252818301909252606091602080830190803683370190505090508181600081518110611adc57611adc613f3e565b602002602001018181525050919050565b606081516001600160401b03811115611b0857611b08613b2c565b604051908082528060200260200182016040528015611b31578160200160208202803683370190505b50905060005b8251811015611c3a57600354835160009182916001600160a01b039091169063c4c4a0d090879086908110611b6e57611b6e613f3e565b60200260200101516040518263ffffffff1660e01b8152600401611b9491815260200190565b60006040518083038186803b158015611bac57600080fd5b505afa158015611bc0573d6000803e3d6000fd5b505050506040513d6000823e601f3d908101601f19168201604052611be89190810190614405565b91509150611c07826040015182604001516121d390919063ffffffff16565b848481518110611c1957611c19613f3e565b60200260200101818152505050508080611c329061425b565b915050611b37565b50919050565b606081516001600160401b03811115611c5b57611c5b613b2c565b604051908082528060200260200182016040528015611c84578160200160208202803683370190505b50905060005b8251811015611c3a576000611cb7848381518110611caa57611caa613f3e565b6020026020010151612e31565b604051634698f9d560e11b815290915073EAB60138D1C2160062bbcD881D153961865aA51090638d31f3aa90611cf1908490600401614456565b604080518083038186803b158015611d0857600080fd5b505af4158015611d1c573d6000803e3d6000fd5b505050506040513d601f19601f82011682018060405250810190611d409190614276565b50838381518110611d5357611d53613f3e565b60209081029190910101525080611d698161425b565b915050611c8a565b600060047f00000000000000000000000000000000000000000000000000000000000000006004811115611da757611da7613ef7565b1480611de4575060017f00000000000000000000000000000000000000000000000000000000000000006004811115611de257611de2613ef7565b145b611dee5750600190565b50600090565b600080821215611e0c57611e0782614490565b611e0e565b815b92915050565b611e3860405180606001604052806000815260200160008152602001600081525090565b6002546003546040516333ef9fd160e21b81526000926001600160a01b039081169263cfbe7f4492611e709290911690600401613b18565b60a06040518083038186803b158015611e8857600080fd5b505afa158015611e9c573d6000803e3d6000fd5b505050506040513d601f19601f82011682018060405250810190611ec091906144ad565b60408051606080820183528351825283015160208201526080909201519082015292915050565b600480546040516323d3547760e01b81526060926000926001600160a01b0316916323d3547791611f1a918791016144fd565b60006040518083038186803b158015611f3257600080fd5b505afa158015611f46573d6000803e3d6000fd5b505050506040513d6000823e601f3d908101601f19168201604052611f6e9190810190614541565b9050600081516001600160401b03811115611f8b57611f8b613b2c565b604051908082528060200260200182016040528015611fc457816020015b611fb16139fa565b815260200190600190039081611fa95790505b50905060005b8251811015612144576040518060c00160405280848381518110611ff057611ff0613f3e565b602002602001015160000151815260200184838151811061201357612013613f3e565b602002602001015160200151815260200184838151811061203657612036613f3e565b602002602001015160400151600481111561205357612053613ef7565b600481111561206457612064613ef7565b600481111561207557612075613ef7565b815260200184838151811061208c5761208c613f3e565b60200260200101516060015181526020018483815181106120af576120af613f3e565b60200260200101516080015181526020018483815181106120d2576120d2613f3e565b602002602001015160a0015160058111156120ef576120ef613ef7565b600581111561210057612100613ef7565b600581111561211157612111613ef7565b81525082828151811061212657612126613f3e565b6020026020010181905250808061213c9061425b565b915050611fca565b509392505050565b60008061217c7f000000000000000000000000000000000000000000000000000000000000000087878787613058565b601c549091506000906121909083906121d3565b9050600061219e88866121b6565b90506121aa8282613103565b98975050505050505050565b60006121c061220b565b611c3a576121ce82846121d3565b610c07565b60006121e16012600a61404e565b6121eb838561462e565b610c07919061464d565b60008183116122045781610c07565b5090919050565b600060027f0000000000000000000000000000000000000000000000000000000000000000600481111561224157612241613ef7565b1461224c5750600090565b50600190565b6000814211156122985760405162461bcd60e51b81526020600482015260116024820152701d1a5b595cdd185b5c08195e1c1a5c9959607a1b6044820152606401610788565b611e0e42836140b1565b606081516001600160401b038111156122bd576122bd613b2c565b60405190808252806020026020018201604052801561232057816020015b61230d6040518060a0016040528060008152602001600081526020016000815260200160008152602001600081525090565b8152602001906001900390816122db5790505b50905060005b8251811015611c3a57600354835160009182916001600160a01b039091169063c4c4a0d09087908690811061235d5761235d613f3e565b60200260200101516040518263ffffffff1660e01b815260040161238391815260200190565b60006040518083038186803b15801561239b57600080fd5b505afa1580156123af573d6000803e3d6000fd5b505050506040513d6000823e601f3d908101601f191682016040526123d79190810190614405565b915091506040518060a0016040528083600001518152602001826020015181526020018360200151815260200183604001518152602001826040015181525084848151811061242857612428613f3e565b6020026020010181905250505080806124409061425b565b915050612326565b600080612453611e14565b90506000806124786124688860200151612252565b8785600001518a60400151613112565b91509150612484611d71565b6124975761249281866121d3565b610654565b61065482866121d3565b6000848660600151146124b85785608001516124bb565b60005b905060006040518061012001604052808860200151815260200188600001518152602001600381526020017f0000000000000000000000000000000000000000000000000000000000000000600481111561251857612518613ef7565b8152602001878152602001838152602001868152602001858152602001846001600160a01b03168152509050600061254f8261325f565b905084816020015111156125b85760405162461bcd60e51b815260206004820152602a60248201527f7072656d69756d20706169642069732061626f7665206d6178206578706563746044820152696564207072656d69756d60b01b6064820152608401610788565b5050505050505050565b600080546001600160a01b038381166001600160a01b0319831681178455604051919092169283917f8be0079c531659141344cd1fd0a4f28419497f9722a3daafe3b4186f6b6457e09190a35050565b600061261c611e14565b600a546040516370a0823160e01b81529192506000916001600160a01b03909116906370a0823190612652903090600401613b18565b60206040518083038186803b15801561266a57600080fd5b505afa15801561267e573d6000803e3d6000fd5b505050506040513d601f19601f820116820180604052508101906126a29190614242565b90506126ac61220b565b1561283c57600b546040516370a0823160e01b81526000916001600160a01b0316906370a08231906126e2903090600401613b18565b60206040518083038186803b1580156126fa57600080fd5b505afa15801561270e573d6000803e3d6000fd5b505050506040513d601f19601f820116820180604052508101906127329190614242565b60408401519091506000906127649061274d6012600a61404e565b61275791906140b1565b855161071b908690612e18565b9050600061277284836132a3565b600b549091506001600160a01b031663a9059cbb7f00000000000000000000000000000000000000000000000000000000000000006127b18487614099565b6040518363ffffffff1660e01b81526004016127ce9291906141cd565b602060405180830381600087803b1580156127e857600080fd5b505af11580156127fc573d6000803e3d6000fd5b505050506040513d601f19601f8201168201806040525081019061282091906141e6565b6118d65760405162461bcd60e51b81526004016107889061466f565b600a5460405163a9059cbb60e01b81526001600160a01b039091169063a9059cbb9061288e907f00000000000000000000000000000000000000000000000000000000000000009085906004016141cd565b602060405180830381600087803b1580156128a857600080fd5b505af11580156128bc573d6000803e3d6000fd5b505050506040513d601f19601f820116820180604052508101906128e091906141e6565b6128fc5760405162461bcd60e51b81526004016107889061466f565b5050565b60105415610fc45760005b601054811015612a195760006010828154811061292a5761292a613f3e565b9060005260206000200154905060006129586106aa6011600085815260200190815260200160002054611aa6565b60008151811061296a5761296a613f3e565b602002602001015190506001600581111561298757612987613ef7565b8160a00151600581111561299d5761299d613ef7565b14156129ea5760405162461bcd60e51b815260206004820152601c60248201527b31b0b73737ba1031b632b0b91030b1ba34bb32903837b9b4ba34b7b760211b6044820152606401610788565b506000908152601160209081526040808320839055600f90915281205580612a118161425b565b91505061290b565b50610fc460106000613a51565b600080612a3883601260090154613362565b90506000612a4d612a4885611aa6565b611aed565b600081518110612a5f57612a5f613f3e565b60200260200101519050600081831015612a8257612a7d83836140b1565b612a8c565b612a8c82846140b1565b601a541195945050505050565b6000806000612ab386601260040154601260060154612448565b90506000612b5c60405180610120016040528089600001518152602001601160008b600001518152602001908152602001600020548152602001600381526020017f00000000000000000000000000000000000000000000000000000000000000006004811115612b2657612b26613ef7565b815260200160126006015481526020018881526020018481526020016000198152602001876001600160a01b03168152506133e6565b87516000908152600f6020526040902042905587518151919250612b7f91613561565b8181602001511015612bea5760405162461bcd60e51b815260206004820152602e60248201527f7072656d69756d2072656365697665642069732062656c6f77206d696e20657860448201526d706563746564207072656d69756d60901b6064820152608401610788565b80516020909101519097909650945050505050565b612c2a6040518060800160405280600081526020016000815260200160008152602001606081525090565b60035460405163016a54f560e41b8152600481018490526000916001600160a01b0316906316a54f509060240160006040518083038186803b158015612c6f57600080fd5b505afa158015612c83573d6000803e3d6000fd5b505050506040513d6000823e601f3d908101601f19168201604052612cab91908101906146b3565b60408051608080820183528351825260208085015190830152828401519282019290925291015160608201529392505050565b60015460035460405163c4158a5160e01b81526000926001600160a01b039081169263c4158a5192612d169290911690600401613b18565b6101606040518083038186803b158015612d2f57600080fd5b505afa158015612d43573d6000803e3d6000fd5b505050506040513d601f19601f82011682018060405250810190612d6791906146fa565b8051600580546001600160a01b03199081166001600160a01b03938416179091556040830151600980548316918416919091179055608083015160088054831691841691909117905560a083015160048054831691841691909117905560e0830151600680548316918416919091179055610100830151600780548316918416919091179055610120830151600a8054831691841691909117905561014090920151600b8054909316911617905550565b600081612e276012600a61404e565b6121eb908561462e565b612e636040518060a0016040528060008152602001600081526020016000815260200160008152602001600081525090565b600354604051630c4c4a0d60e41b81526004810184905260009182916001600160a01b039091169063c4c4a0d09060240160006040518083038186803b158015612eac57600080fd5b505afa158015612ec0573d6000803e3d6000fd5b505050506040513d6000823e601f3d908101601f19168201604052612ee89190810190614405565b915091506040518060a00160405280428360200151612f0791906140b1565b8152602001612f27846040015184604001516121d390919063ffffffff16565b8152600254600354604051630fb75cc960e31b81526020909301926001600160a01b0392831692637dbae64892612f6392911690600401613b18565b60206040518083038186803b158015612f7b57600080fd5b505afa158015612f8f573d6000803e3d6000fd5b505050506040513d601f19601f82011682018060405250810190612fb39190614242565b815260200183602001518152602001600960009054906101000a90046001600160a01b03166001600160a01b031663f369f2ac6040518163ffffffff1660e01b81526004016101406040518083038186803b15801561301157600080fd5b505afa158015613025573d6000803e3d6000fd5b505050506040513d601f19601f8201168201806040525081019061304991906147d4565b61012001519052949350505050565b6009546000906001600160a01b031663a57ce68287600481111561307e5761307e613ef7565b600481111561308f5761308f613ef7565b878787876040518663ffffffff1660e01b81526004016130b395949392919061485b565b60206040518083038186803b1580156130cb57600080fd5b505afa1580156130df573d6000803e3d6000fd5b505050506040513d601f19601f82011682018060405250810190611a9c9190614242565b60008183106122045781610c07565b60008060006040518060a00160405280888152602001878152602001868152602001858152602001600960009054906101000a90046001600160a01b03166001600160a01b031663f369f2ac6040518163ffffffff1660e01b81526004016101406040518083038186803b15801561318957600080fd5b505afa15801561319d573d6000803e3d6000fd5b505050506040513d601f19601f820116820180604052508101906131c191906147d4565b6101200151905260405163b6e62e5960e01b815290915073EAB60138D1C2160062bbcD881D153961865aA5109063b6e62e5990613202908490600401614456565b604080518083038186803b15801561321957600080fd5b505af415801561322d573d6000803e3d6000fd5b505050506040513d601f19601f820116820180604052508101906132519190614276565b909890975095505050505050565b613267613a6f565b8151613272906135b7565b1580156132875750815161328590613668565b155b1561329557611e0e82613700565b611e0e82613725565b919050565b60025460035460405163ae58cf0b60e01b81526000926001600160a01b039081169263ae58cf0b926132dd929091169087906004016141cd565b602060405180830381600087803b1580156132f757600080fd5b505af115801561330b573d6000803e3d6000fd5b505050506040513d601f19601f8201168201806040525081019061332f9190614242565b905081811015611e0e57604051633c4976f160e21b81523060048201526024810183905260448101829052606401610788565b6007546040516339a427f160e01b815260048101849052602481018390526000916001600160a01b0316906339a427f19060440160206040518083038186803b1580156133ae57600080fd5b505afa1580156133c2573d6000803e3d6000fd5b505050506040513d601f19601f82011682018060405250810190610c079190614242565b6133ee613a6f565b6003546000906001600160a01b03166237f2bc61340a85613746565b6040518263ffffffff1660e01b81526004016134269190614889565b606060405180830381600087803b15801561344057600080fd5b505af1158015613454573d6000803e3d6000fd5b505050506040513d601f19601f8201168201806040525081019061347891906148ed565b6101008401519091506001600160a01b03161561353b57600d546003546101008501516001600160a01b039283169263a4ed57819216906134b887613746565b60800151602086015160408088015190516001600160e01b031960e088901b1681526001600160a01b03958616600482015294909316602485015260448401919091526064830152608482015260a401600060405180830381600087803b15801561352257600080fd5b505af1158015613536573d6000803e3d6000fd5b505050505b604080516060810182528251815260208084015190820152918101519082015292915050565b6000828152601160205260409020546128fc576000828152601160205260408120919091556010805460018101825591527f1b6847dc741a1b0cd08d278845f9d819d87b734759afb55fe2de5cb82a9ae6720155565b6000806135c26137e2565b604080516001808252818301909252919250600091906020808301908036833701905050905083816000815181106135fc576135fc613f3e565b602002602001018181525050600061361382611c40565b60008151811061362557613625613f3e565b602002602001015190508260600151601260ff16600a613645919061404e565b61364f919061405a565b81138061365f5750826060015181125b95945050505050565b6000806136736137e2565b604080516001808252818301909252919250600091906020808301908036833701905050905083816000815181106136ad576136ad613f3e565b60200260200101818152505060006136c4826122a2565b6000815181106136d6576136d6613f3e565b6020026020010151905082608001514282602001516136f591906140b1565b111595945050505050565b613708613a6f565b6003546000906001600160a01b03166392b4632c61340a85613746565b61372d613a6f565b6003546000906001600160a01b031663e4e83e3d61340a855b61374e613a90565b6040518061010001604052808360000151815260200183602001518152602001836040015181526020018360600151600481111561378e5761378e613ef7565b600481111561379f5761379f613ef7565b60048111156137b0576137b0613ef7565b8152602001836080015181526020018360a0015181526020018360c0015181526020018360e001518152509050919050565b61381b6040518060c001604052806000815260200160008152602001600081526020016000815260200160008152602001600081525090565b6008546040805163da53763160e01b815290516000926001600160a01b03169163da53763191600480830192610120929190829003018186803b15801561386157600080fd5b505afa158015613875573d6000803e3d6000fd5b505050506040513d601f19601f820116820180604052508101906138999190614948565b90506000600860009054906101000a90046001600160a01b03166001600160a01b031663ffae4b366040518163ffffffff1660e01b81526004016101806040518083038186803b1580156138ec57600080fd5b505afa158015613900573d6000803e3d6000fd5b505050506040513d601f19601f820116820180604052508101906139249190614965565b90506040518060c001604052808360e0015181526020018361010001518152602001600960009054906101000a90046001600160a01b03166001600160a01b031663f369f2ac6040518163ffffffff1660e01b81526004016101406040518083038186803b15801561399557600080fd5b505afa1580156139a9573d6000803e3d6000fd5b505050506040513d601f19601f820116820180604052508101906139cd91906147d4565b61012001518152602001826000015181526020018260400151815260200182602001518152509250505090565b6040518060c00160405280600081526020016000815260200160006004811115613a2657613a26613ef7565b8152602001600081526020016000815260200160006005811115613a4c57613a4c613ef7565b905290565b50805460008255906000526020600020908101906110c69190613ae6565b60405180606001604052806000815260200160008152602001600081525090565b60405180610100016040528060008152602001600081526020016000815260200160006004811115613ac457613ac4613ef7565b8152602001600081526020016000815260200160008152602001600081525090565b5b80821115613afb5760008155600101613ae7565b5090565b600060208284031215613b1157600080fd5b5035919050565b6001600160a01b0391909116815260200190565b634e487b7160e01b600052604160045260246000fd5b60405160a081016001600160401b0381118282101715613b6457613b64613b2c565b60405290565b60405161018081016001600160401b0381118282101715613b6457613b64613b2c565b60405160c081016001600160401b0381118282101715613b6457613b64613b2c565b60405161012081016001600160401b0381118282101715613b6457613b64613b2c565b60405161016081016001600160401b0381118282101715613b6457613b64613b2c565b60405161014081016001600160401b0381118282101715613b6457613b64613b2c565b604051601f8201601f191681016001600160401b0381118282101715613c4057613c40613b2c565b604052919050565b600060a08284031215613c5a57600080fd5b613c62613b42565b82358152602083013560208201526040830135604082015260608301356060820152608083013560808201528091505092915050565b60006101808284031215613cab57600080fd5b613cb3613b6a565b823581526020830135602082015260408301356040820152606083013560608201526080830135608082015260a083013560a082015260c083013560c082015260e083013560e08201526101008084013581830152506101208084013581830152506101408084013581830152506101608084013581830152508091505092915050565b6001600160a01b03811681146110c657600080fd5b60008060008060808587031215613d6257600080fd5b8435613d6d81613d37565b93506020850135613d7d81613d37565b92506040850135613d8d81613d37565b91506060850135613d9d81613d37565b939692955090935050565b600080600060608486031215613dbd57600080fd5b83359250602084013591506040840135613dd681613d37565b809150509250925092565b600060208284031215613df357600080fd5b8135610c0781613d37565b60008060408385031215613e1157600080fd5b823591506020830135613e2381613d37565b809150509250929050565b60008060408385031215613e4157600080fd5b50508035926020909101359150565b600581106110c657600080fd5b600681106110c657600080fd5b6000806000838503610100811215613e8157600080fd5b60c0811215613e8f57600080fd5b50613e98613b8d565b84358152602085013560208201526040850135613eb481613e50565b80604083015250606085013560608201526080850135608082015260a0850135613edd81613e5d565b60a08201529560c0850135955060e0909401359392505050565b634e487b7160e01b600052602160045260246000fd5b600581106110c657634e487b7160e01b600052602160045260246000fd5b60208101613f3883613f0d565b91905290565b634e487b7160e01b600052603260045260246000fd5b634e487b7160e01b600052601160045260246000fd5b600181815b80851115613fa5578160001904821115613f8b57613f8b613f54565b80851615613f9857918102915b93841c9390800290613f6f565b509250929050565b600082613fbc57506001611e0e565b81613fc957506000611e0e565b8160018114613fdf5760028114613fe957614005565b6001915050611e0e565b60ff841115613ffa57613ffa613f54565b50506001821b611e0e565b5060208310610133831016604e8410600b8410161715614028575081810a611e0e565b6140328383613f6a565b806000190482111561404657614046613f54565b029392505050565b6000610c078383613fad565b60008083128015600160ff1b85018412161561407857614078613f54565b6001600160ff1b038401831381161561409357614093613f54565b50500390565b600082198211156140ac576140ac613f54565b500190565b6000828210156140c3576140c3613f54565b500390565b6020808252818101527f4f776e61626c653a2063616c6c6572206973206e6f7420746865206f776e6572604082015260600190565b80516001600160681b038116811461329e57600080fd5b80516001600160801b038116811461329e57600080fd5b8051801515811461329e57600080fd5b600080600080600080600080610100898b03121561415857600080fd5b885161ffff8116811461416a57600080fd5b975061417860208a016140fd565b965061418660408a016140fd565b95506060890151945061419b60808a01614114565b93506141a960a08a01614114565b925060c089015191506141be60e08a0161412b565b90509295985092959890939650565b6001600160a01b03929092168252602082015260400190565b6000602082840312156141f857600080fd5b610c078261412b565b60006020828403121561421357600080fd5b8151610c0781613d37565b6020808252600a90820152691bdb9b1e4815985d5b1d60b21b604082015260600190565b60006020828403121561425457600080fd5b5051919050565b600060001982141561426f5761426f613f54565b5060010190565b6000806040838503121561428957600080fd5b505080516020909101519092909150565b600061012082840312156142ad57600080fd5b6142b5613baf565b9050815181526020820151602082015260408201516040820152606082015160608201526080820151608082015260a082015160a082015260c082015160c082015260e082015160e082015261010080830151818301525092915050565b60006001600160401b0382111561432c5761432c613b2c565b5060051b60200190565b600060a0828403121561434857600080fd5b614350613b42565b90508151815260208083015181830152604083015160408301526143766060840161412b565b606083015260808301516001600160401b0381111561439457600080fd5b8301601f810185136143a557600080fd5b80516143b86143b382614313565b613c18565b81815260059190911b820183019083810190878311156143d757600080fd5b928401925b828410156143f5578351825292840192908401906143dc565b6080860152509295945050505050565b600080610140838503121561441957600080fd5b614423848461429a565b6101208401519092506001600160401b0381111561444057600080fd5b61444c85828601614336565b9150509250929050565b600060a082019050825182526020830151602083015260408301516040830152606083015160608301526080830151608083015292915050565b6000600160ff1b8214156144a6576144a6613f54565b5060000390565b600060a082840312156144bf57600080fd5b6144c7613b42565b82518152602083015160208201526040830151604082015260608301516060820152608083015160808201528091505092915050565b6020808252825182820181905260009190848201906040850190845b8181101561453557835183529284019291840191600101614519565b50909695505050505050565b6000602080838503121561455457600080fd5b82516001600160401b0381111561456a57600080fd5b8301601f8101851361457b57600080fd5b80516145896143b382614313565b81815260c091820283018401918482019190888411156145a857600080fd5b938501935b838510156146225780858a0312156145c55760008081fd5b6145cd613b8d565b8551815286860151878201526040808701516145e881613e50565b90820152606086810151908201526080808701519082015260a08087015161460f81613e5d565b90820152835293840193918501916145ad565b50979650505050505050565b600081600019048311821515161561464857614648613f54565b500290565b60008261466a57634e487b7160e01b600052601260045260246000fd5b500490565b60208082526024908201527f6661696c656420746f2072657475726e2066756e64732066726f6d20737472616040820152637465677960e01b606082015260800190565b6000602082840312156146c557600080fd5b81516001600160401b038111156146db57600080fd5b6146e784828501614336565b949350505050565b805161329e81613d37565b6000610160828403121561470d57600080fd5b614715613bd2565b61471e836146ef565b815261472c602084016146ef565b602082015261473d604084016146ef565b604082015261474e606084016146ef565b606082015261475f608084016146ef565b608082015261477060a084016146ef565b60a082015261478160c084016146ef565b60c082015261479260e084016146ef565b60e08201526101006147a58185016146ef565b908201526101206147b78482016146ef565b908201526101406147c98482016146ef565b908201529392505050565b600061014082840312156147e757600080fd5b6147ef613bf5565b825181526020830151602082015260408301516040820152606083015160608201526080830151608082015260a083015160a082015260c083015160c082015260e083015160e08201526101008084015181830152506101208084015181830152508091505092915050565b60a0810161486887613f0d565b95815260208101949094526040840192909252606083015260809091015290565b60006101008201905082518252602083015160208301526040830151604083015260608301516148b881613f0d565b806060840152506080830151608083015260a083015160a083015260c083015160c083015260e083015160e083015292915050565b6000606082840312156148ff57600080fd5b604051606081016001600160401b038111828210171561492157614921613b2c565b80604052508251815260208301516020820152604083015160408201528091505092915050565b6000610120828403121561495b57600080fd5b610c07838361429a565b6000610180828403121561497857600080fd5b614980613b6a565b825181526020830151602082015260408301516040820152606083015160608201526080830151608082015260a083015160a082015260c083015160c082015260e083015160e08201526101008084015181830152506101208084015181830152506101408084015181830152506101606147c981850161412b56fea2646970667358221220cb8a35dec02402203437cf46f385ae29a24c3c215368a69eeab7a9eda93c548f64736f6c63430008090033",
  "deployedBytecode": "0x608060405234801561001057600080fd5b50600436106101b75760003560e01c806303c4d3d6146101bc578063131b2f86146101d85780632a37ad5a146101f85780632bab754b1461028757806338b74054146102a7578063478620c0146102ba57806354f1e01f146102dd57806357949815146103055780635a3c76ab146103185780635cf035491461032d578063619a84cc14610340578063621318cd14610348578063665a11ca1461035b5780637083a9041461036e578063715018a6146103815780637dd0db1b1461038957806383cea5421461039c578063870dcaeb146103a45780638da5cb5b146103b7578063a65be9ba146103bf578063a8c379c2146103d2578063aabaecd614610400578063ae74fc4d14610413578063b5ca94a014610426578063bb4a9f8814610439578063bc4e44051461044c578063cae1c5821461045f578063cdf456e114610472578063d4aaa9eb14610485578063d8fca1ac146104a5578063dffcf353146104b8578063ee9e0e6a146104cb578063f2fde38b146104de578063fbfa77cf146104f1578063fdf262b714610518578063ffcd00ac1461052b578063ffd9eedb1461053e575b600080fd5b6101c5601e5481565b6040519081526020015b60405180910390f35b6101c56101e6366004613aff565b600f6020526000908152604090205481565b601254601354601454601554601654601754601854601954601a54601b54601c54601d5461022e9b9a999897969594939291908c565b604080519c8d5260208d019b909b52998b019890985260608a0196909652608089019490945260a088019290925260c087015260e0860152610100850152610120840152610140830152610160820152610180016101cf565b60045461029a906001600160a01b031681565b6040516101cf9190613b18565b60095461029a906001600160a01b031681565b6102cd6102c8366004613c48565b610572565b60405190151581526020016101cf565b6102f06102eb366004613c48565b61065f565b604080519283526020830191909152016101cf565b600d5461029a906001600160a01b031681565b61032b610326366004613c98565b610759565b005b61032b61033b366004613d4c565b6108f1565b61032b610aca565b6102cd610356366004613aff565b610be4565b60055461029a906001600160a01b031681565b61032b61037c366004613da8565b610c0e565b61032b610f8b565b61032b610397366004613de1565b610fc6565b61032b6110c9565b60065461029a906001600160a01b031681565b61029a611121565b60075461029a906001600160a01b031681565b6103e56103e0366004613dfe565b611130565b604080519384526020840192909252908201526060016101cf565b600e5461029a906001600160a01b031681565b61032b610421366004613aff565b6113d6565b61032b610434366004613d4c565b61147e565b60035461029a906001600160a01b031681565b6101c561045a366004613aff565b6118dd565b60085461029a906001600160a01b031681565b600b5461029a906001600160a01b031681565b6101c5610493366004613aff565b60116020526000908152604090205481565b600c5461029a906001600160a01b031681565b6102f06104c6366004613e2e565b6118fe565b60015461029a906001600160a01b031681565b61032b6104ec366004613de1565b611990565b61029a7f000000000000000000000000000000000000000000000000000000000000000081565b600a5461029a906001600160a01b031681565b6101c5610539366004613e6a565b611a2d565b6105657f000000000000000000000000000000000000000000000000000000000000000081565b6040516101cf9190613f2b565b60008160200151601e541461058957506000919050565b60006105988360000151611aa6565b905060006105a582611aed565b6000815181106105b7576105b7613f3e565b6020026020010151905060006105cc83611c40565b6000815181106105de576105de613f3e565b6020026020010151905060006105f2611d71565b610611576106026012600a61404e565b61060c908361405a565b610613565b815b905060006106308260126002015461062b919061405a565b611df4565b601654909150841080159061064757506017548411155b8015610654575060155481105b979650505050505050565b601854600090819081610670611e14565b8551600090815260116020526040812054919250908190156106db5786516000908152601160205260408120546106af906106aa90611aa6565b611ee7565b6000815181106106c1576106c1613f3e565b602002602001015190508060800151915080606001519250505b600061070088604001518960200151866000015188876106fb9190614099565b61214c565b905060006107216012600b015461071b8b60400151896121b6565b906121d3565b61072b9084614099565b905061074061073a83836121f5565b846121f5565b965061074c83886140b1565b9750505050505050915091565b33610762611121565b6001600160a01b0316146107915760405162461bcd60e51b8152600401610788906140c8565b60405180910390fd5b60007f00000000000000000000000000000000000000000000000000000000000000006001600160a01b0316632728f3336040518163ffffffff1660e01b81526004016101006040518083038186803b1580156107ed57600080fd5b505afa158015610801573d6000803e3d6000fd5b505050506040513d601f19601f82011682018060405250810190610825919061413b565b975050505050505050801561088e5760405162461bcd60e51b815260206004820152602960248201527f63616e6e6f74206368616e676520737472617465677920696620726f756e642060448201526869732061637469766560b81b6064820152608401610788565b508051601255602081015160135560408101516014556060810151601555608081015160165560a081015160175560c081015160185560e0810151601955610100810151601a55610120810151601b55610140810151601c556101600151601d55565b336108fa611121565b6001600160a01b0316146109205760405162461bcd60e51b8152600401610788906140c8565b61092c8484848461147e565b600a5460405163095ea7b360e01b81526001600160a01b039091169063095ea7b390610980907f000000000000000000000000000000000000000000000000000000000000000090600019906004016141cd565b602060405180830381600087803b15801561099a57600080fd5b505af11580156109ae573d6000803e3d6000fd5b505050506040513d601f19601f820116820180604052508101906109d291906141e6565b50600b5460405163095ea7b360e01b81526001600160a01b039091169063095ea7b390610a27907f000000000000000000000000000000000000000000000000000000000000000090600019906004016141cd565b602060405180830381600087803b158015610a4157600080fd5b505af1158015610a55573d6000803e3d6000fd5b505050506040513d601f19601f82011682018060405250810190610a7991906141e6565b50610a8261220b565b610a9757600a546001600160a01b0316610aa4565b600b546001600160a01b03165b600e80546001600160a01b0319166001600160a01b039290921691909117905550505050565b33610ad3611121565b6001600160a01b031614610af95760405162461bcd60e51b8152600401610788906140c8565b600260009054906101000a90046001600160a01b03166001600160a01b0316633535c97b6040518163ffffffff1660e01b815260040160206040518083038186803b158015610b4757600080fd5b505afa158015610b5b573d6000803e3d6000fd5b505050506040513d601f19601f82011682018060405250810190610b7f9190614201565b60025460405163447fbc6360e01b81526001600160a01b039283169263447fbc6392610bb092911690600401613b18565b600060405180830381600087803b158015610bca57600080fd5b505af1158015610bde573d6000803e3d6000fd5b50505050565b600080610bf083612252565b6012549091508110801590610c0757506013548111155b9392505050565b336001600160a01b037f00000000000000000000000000000000000000000000000000000000000000001614610c565760405162461bcd60e51b81526004016107889061421e565b6000610c646106aa85611aa6565b600081518110610c7657610c76613f3e565b602002602001015190506000610c97610c928360200151611aa6565b6122a2565b600081518110610ca957610ca9613f3e565b602002602001015190508460116000846020015181526020019081526020016000205414610d0e5760405162461bcd60e51b81526020600482015260126024820152711a5b9d985b1a59081c1bdcda5d1a5bdb925960721b6044820152606401610788565b610d218282604001518360200151611a2d565b841115610d7c5760405162461bcd60e51b815260206004820152602360248201527f616d6f756e74206578636565647320616c6c6f77656420636c6f736520616d6f6044820152621d5b9d60ea1b6064820152608401610788565b6000610d9382601260050154601260060154612448565b9050610da38386600084886124a1565b610dab61220b565b15610edd57600b546040516370a0823160e01b81526000916001600160a01b0316906370a0823190610de1903090600401613b18565b60206040518083038186803b158015610df957600080fd5b505afa158015610e0d573d6000803e3d6000fd5b505050506040513d601f19601f82011682018060405250810190610e319190614242565b600b5460405163a9059cbb60e01b81529192506001600160a01b03169063a9059cbb90610e84907f00000000000000000000000000000000000000000000000000000000000000009085906004016141cd565b602060405180830381600087803b158015610e9e57600080fd5b505af1158015610eb2573d6000803e3d6000fd5b505050506040513d601f19601f82011682018060405250810190610ed691906141e6565b5050610f83565b600a5460405163a9059cbb60e01b81526001600160a01b039091169063a9059cbb90610f2f907f00000000000000000000000000000000000000000000000000000000000000009089906004016141cd565b602060405180830381600087803b158015610f4957600080fd5b505af1158015610f5d573d6000803e3d6000fd5b505050506040513d601f19601f82011682018060405250810190610f8191906141e6565b505b505050505050565b33610f94611121565b6001600160a01b031614610fba5760405162461bcd60e51b8152600401610788906140c8565b610fc460006125c2565b565b336001600160a01b037f0000000000000000000000000000000000000000000000000000000000000000161461100e5760405162461bcd60e51b81526004016107889061421e565b60005b6010548110156110bd5760006010828154811061103057611030613f3e565b90600052602060002001549050600061105e6106aa6011600085815260200190815260200160002054611aa6565b60008151811061107057611070613f3e565b6020026020010151905061108e8182606001516000600019886124a1565b506000908152601160209081526040808320839055600f909152812055806110b58161425b565b915050611011565b506110c6612612565b50565b336001600160a01b037f000000000000000000000000000000000000000000000000000000000000000016146111115760405162461bcd60e51b81526004016107889061421e565b611119612612565b610fc4612900565b6000546001600160a01b031690565b60008080336001600160a01b037f0000000000000000000000000000000000000000000000000000000000000000161461117c5760405162461bcd60e51b81526004016107889061421e565b6019546000868152600f6020526040902054429161119991614099565b11156111e65760405162461bcd60e51b815260206004820152601c60248201527b1b5a5b881d1a5b59481a5b9d195c9d985b081b9bdd081c185cdcd95960221b6044820152606401610788565b6111ef85612a26565b6112335760405162461bcd60e51b81526020600482015260156024820152741d9bdb081d985c9a585b98d948195e18d959591959605a1b6044820152606401610788565b6000611241610c9287611aa6565b60008151811061125357611253613f3e565b6020026020010151905061126681610572565b6112a35760405162461bcd60e51b815260206004820152600e60248201526d696e76616c696420737472696b6560901b6044820152606401610788565b60006112ae8261065f565b600e546040516323b872dd60e01b81526001600160a01b037f0000000000000000000000000000000000000000000000000000000000000000811660048301523060248301526044820185905293965091935091909116906323b872dd90606401602060405180830381600087803b15801561132957600080fd5b505af115801561133d573d6000803e3d6000fd5b505050506040513d601f19601f8201168201806040525081019061136191906141e6565b6113bb5760405162461bcd60e51b815260206004820152602560248201527f636f6c6c61746572616c207472616e736665722066726f6d207661756c742066604482015264185a5b195960da1b6064820152608401610788565b6113c6828288612a99565b9098909750929550919350505050565b336001600160a01b037f0000000000000000000000000000000000000000000000000000000000000000161461141e5760405162461bcd60e51b81526004016107889061421e565b600061142982612bff565b90506114388160200151610be4565b6114745760405162461bcd60e51b815260206004820152600d60248201526c1a5b9d985b1a5908189bd85c99609a1b6044820152606401610788565b60200151601e5550565b33611487611121565b6001600160a01b0316146114ad5760405162461bcd60e51b8152600401610788906140c8565b600a546001600160a01b03161561154957600a5460035460405163095ea7b360e01b81526001600160a01b039283169263095ea7b3926114f5929116906000906004016141cd565b602060405180830381600087803b15801561150f57600080fd5b505af1158015611523573d6000803e3d6000fd5b505050506040513d601f19601f8201168201806040525081019061154791906141e6565b505b600b546001600160a01b0316156115e557600b5460035460405163095ea7b360e01b81526001600160a01b039283169263095ea7b392611591929116906000906004016141cd565b602060405180830381600087803b1580156115ab57600080fd5b505af11580156115bf573d6000803e3d6000fd5b505050506040513d601f19601f820116820180604052508101906115e391906141e6565b505b600380546001600160a01b038581166001600160a01b031992831617909255600180549287169290911682179055604051623f970360e91b81527029aca72a2422aa24ac2fa0a220a82a22a960791b6004820152637f2e06009060240160206040518083038186803b15801561165a57600080fd5b505afa15801561166e573d6000803e3d6000fd5b505050506040513d601f19601f820116820180604052508101906116929190614201565b600280546001600160a01b0319166001600160a01b03929092169190911790556116ba612cde565b600c80546001600160a01b038085166001600160a01b031992831617909255600d8054848416921691909117905560025460408051633535c97b60e01b815290519190921691633535c97b916004808301926020929190829003018186803b15801561172557600080fd5b505afa158015611739573d6000803e3d6000fd5b505050506040513d601f19601f8201168201806040525081019061175d9190614201565b60025460405163447fbc6360e01b81526001600160a01b039283169263447fbc639261178e92911690600401613b18565b600060405180830381600087803b1580156117a857600080fd5b505af11580156117bc573d6000803e3d6000fd5b5050600a5460035460405163095ea7b360e01b81526001600160a01b03928316945063095ea7b393506117f99290911690600019906004016141cd565b602060405180830381600087803b15801561181357600080fd5b505af1158015611827573d6000803e3d6000fd5b505050506040513d601f19601f8201168201806040525081019061184b91906141e6565b50600b5460035460405163095ea7b360e01b81526001600160a01b039283169263095ea7b39261188492911690600019906004016141cd565b602060405180830381600087803b15801561189e57600080fd5b505af11580156118b2573d6000803e3d6000fd5b505050506040513d601f19601f820116820180604052508101906118d691906141e6565b5050505050565b601081815481106118ed57600080fd5b600091825260209091200154905081565b60075460405163ca4ca66760e01b8152600481018490526024810183905260009182916001600160a01b039091169063ca4ca66790604401604080518083038186803b15801561194d57600080fd5b505afa158015611961573d6000803e3d6000fd5b505050506040513d601f19601f820116820180604052508101906119859190614276565b915091509250929050565b33611999611121565b6001600160a01b0316146119bf5760405162461bcd60e51b8152600401610788906140c8565b6001600160a01b038116611a245760405162461bcd60e51b815260206004820152602660248201527f4f776e61626c653a206e6577206f776e657220697320746865207a65726f206160448201526564647265737360d01b6064820152608401610788565b6110c6816125c2565b600080611a38611e14565b90506000611a5485858460000151670de0b6b3a764000061214c565b9050611a6d8660600151826121d390919063ffffffff16565b866080015110611a7e576000611a9c565b6080860151611a8d9082612e18565b8660600151611a9c91906140b1565b9695505050505050565b604080516001808252818301909252606091602080830190803683370190505090508181600081518110611adc57611adc613f3e565b602002602001018181525050919050565b606081516001600160401b03811115611b0857611b08613b2c565b604051908082528060200260200182016040528015611b31578160200160208202803683370190505b50905060005b8251811015611c3a57600354835160009182916001600160a01b039091169063c4c4a0d090879086908110611b6e57611b6e613f3e565b60200260200101516040518263ffffffff1660e01b8152600401611b9491815260200190565b60006040518083038186803b158015611bac57600080fd5b505afa158015611bc0573d6000803e3d6000fd5b505050506040513d6000823e601f3d908101601f19168201604052611be89190810190614405565b91509150611c07826040015182604001516121d390919063ffffffff16565b848481518110611c1957611c19613f3e565b60200260200101818152505050508080611c329061425b565b915050611b37565b50919050565b606081516001600160401b03811115611c5b57611c5b613b2c565b604051908082528060200260200182016040528015611c84578160200160208202803683370190505b50905060005b8251811015611c3a576000611cb7848381518110611caa57611caa613f3e565b6020026020010151612e31565b604051634698f9d560e11b815290915073__$c0a17acec7091fec39628aa0eae1394872$__90638d31f3aa90611cf1908490600401614456565b604080518083038186803b158015611d0857600080fd5b505af4158015611d1c573d6000803e3d6000fd5b505050506040513d601f19601f82011682018060405250810190611d409190614276565b50838381518110611d5357611d53613f3e565b60209081029190910101525080611d698161425b565b915050611c8a565b600060047f00000000000000000000000000000000000000000000000000000000000000006004811115611da757611da7613ef7565b1480611de4575060017f00000000000000000000000000000000000000000000000000000000000000006004811115611de257611de2613ef7565b145b611dee5750600190565b50600090565b600080821215611e0c57611e0782614490565b611e0e565b815b92915050565b611e3860405180606001604052806000815260200160008152602001600081525090565b6002546003546040516333ef9fd160e21b81526000926001600160a01b039081169263cfbe7f4492611e709290911690600401613b18565b60a06040518083038186803b158015611e8857600080fd5b505afa158015611e9c573d6000803e3d6000fd5b505050506040513d601f19601f82011682018060405250810190611ec091906144ad565b60408051606080820183528351825283015160208201526080909201519082015292915050565b600480546040516323d3547760e01b81526060926000926001600160a01b0316916323d3547791611f1a918791016144fd565b60006040518083038186803b158015611f3257600080fd5b505afa158015611f46573d6000803e3d6000fd5b505050506040513d6000823e601f3d908101601f19168201604052611f6e9190810190614541565b9050600081516001600160401b03811115611f8b57611f8b613b2c565b604051908082528060200260200182016040528015611fc457816020015b611fb16139fa565b815260200190600190039081611fa95790505b50905060005b8251811015612144576040518060c00160405280848381518110611ff057611ff0613f3e565b602002602001015160000151815260200184838151811061201357612013613f3e565b602002602001015160200151815260200184838151811061203657612036613f3e565b602002602001015160400151600481111561205357612053613ef7565b600481111561206457612064613ef7565b600481111561207557612075613ef7565b815260200184838151811061208c5761208c613f3e565b60200260200101516060015181526020018483815181106120af576120af613f3e565b60200260200101516080015181526020018483815181106120d2576120d2613f3e565b602002602001015160a0015160058111156120ef576120ef613ef7565b600581111561210057612100613ef7565b600581111561211157612111613ef7565b81525082828151811061212657612126613f3e565b6020026020010181905250808061213c9061425b565b915050611fca565b509392505050565b60008061217c7f000000000000000000000000000000000000000000000000000000000000000087878787613058565b601c549091506000906121909083906121d3565b9050600061219e88866121b6565b90506121aa8282613103565b98975050505050505050565b60006121c061220b565b611c3a576121ce82846121d3565b610c07565b60006121e16012600a61404e565b6121eb838561462e565b610c07919061464d565b60008183116122045781610c07565b5090919050565b600060027f0000000000000000000000000000000000000000000000000000000000000000600481111561224157612241613ef7565b1461224c5750600090565b50600190565b6000814211156122985760405162461bcd60e51b81526020600482015260116024820152701d1a5b595cdd185b5c08195e1c1a5c9959607a1b6044820152606401610788565b611e0e42836140b1565b606081516001600160401b038111156122bd576122bd613b2c565b60405190808252806020026020018201604052801561232057816020015b61230d6040518060a0016040528060008152602001600081526020016000815260200160008152602001600081525090565b8152602001906001900390816122db5790505b50905060005b8251811015611c3a57600354835160009182916001600160a01b039091169063c4c4a0d09087908690811061235d5761235d613f3e565b60200260200101516040518263ffffffff1660e01b815260040161238391815260200190565b60006040518083038186803b15801561239b57600080fd5b505afa1580156123af573d6000803e3d6000fd5b505050506040513d6000823e601f3d908101601f191682016040526123d79190810190614405565b915091506040518060a0016040528083600001518152602001826020015181526020018360200151815260200183604001518152602001826040015181525084848151811061242857612428613f3e565b6020026020010181905250505080806124409061425b565b915050612326565b600080612453611e14565b90506000806124786124688860200151612252565b8785600001518a60400151613112565b91509150612484611d71565b6124975761249281866121d3565b610654565b61065482866121d3565b6000848660600151146124b85785608001516124bb565b60005b905060006040518061012001604052808860200151815260200188600001518152602001600381526020017f0000000000000000000000000000000000000000000000000000000000000000600481111561251857612518613ef7565b8152602001878152602001838152602001868152602001858152602001846001600160a01b03168152509050600061254f8261325f565b905084816020015111156125b85760405162461bcd60e51b815260206004820152602a60248201527f7072656d69756d20706169642069732061626f7665206d6178206578706563746044820152696564207072656d69756d60b01b6064820152608401610788565b5050505050505050565b600080546001600160a01b038381166001600160a01b0319831681178455604051919092169283917f8be0079c531659141344cd1fd0a4f28419497f9722a3daafe3b4186f6b6457e09190a35050565b600061261c611e14565b600a546040516370a0823160e01b81529192506000916001600160a01b03909116906370a0823190612652903090600401613b18565b60206040518083038186803b15801561266a57600080fd5b505afa15801561267e573d6000803e3d6000fd5b505050506040513d601f19601f820116820180604052508101906126a29190614242565b90506126ac61220b565b1561283c57600b546040516370a0823160e01b81526000916001600160a01b0316906370a08231906126e2903090600401613b18565b60206040518083038186803b1580156126fa57600080fd5b505afa15801561270e573d6000803e3d6000fd5b505050506040513d601f19601f820116820180604052508101906127329190614242565b60408401519091506000906127649061274d6012600a61404e565b61275791906140b1565b855161071b908690612e18565b9050600061277284836132a3565b600b549091506001600160a01b031663a9059cbb7f00000000000000000000000000000000000000000000000000000000000000006127b18487614099565b6040518363ffffffff1660e01b81526004016127ce9291906141cd565b602060405180830381600087803b1580156127e857600080fd5b505af11580156127fc573d6000803e3d6000fd5b505050506040513d601f19601f8201168201806040525081019061282091906141e6565b6118d65760405162461bcd60e51b81526004016107889061466f565b600a5460405163a9059cbb60e01b81526001600160a01b039091169063a9059cbb9061288e907f00000000000000000000000000000000000000000000000000000000000000009085906004016141cd565b602060405180830381600087803b1580156128a857600080fd5b505af11580156128bc573d6000803e3d6000fd5b505050506040513d601f19601f820116820180604052508101906128e091906141e6565b6128fc5760405162461bcd60e51b81526004016107889061466f565b5050565b60105415610fc45760005b601054811015612a195760006010828154811061292a5761292a613f3e565b9060005260206000200154905060006129586106aa6011600085815260200190815260200160002054611aa6565b60008151811061296a5761296a613f3e565b602002602001015190506001600581111561298757612987613ef7565b8160a00151600581111561299d5761299d613ef7565b14156129ea5760405162461bcd60e51b815260206004820152601c60248201527b31b0b73737ba1031b632b0b91030b1ba34bb32903837b9b4ba34b7b760211b6044820152606401610788565b506000908152601160209081526040808320839055600f90915281205580612a118161425b565b91505061290b565b50610fc460106000613a51565b600080612a3883601260090154613362565b90506000612a4d612a4885611aa6565b611aed565b600081518110612a5f57612a5f613f3e565b60200260200101519050600081831015612a8257612a7d83836140b1565b612a8c565b612a8c82846140b1565b601a541195945050505050565b6000806000612ab386601260040154601260060154612448565b90506000612b5c60405180610120016040528089600001518152602001601160008b600001518152602001908152602001600020548152602001600381526020017f00000000000000000000000000000000000000000000000000000000000000006004811115612b2657612b26613ef7565b815260200160126006015481526020018881526020018481526020016000198152602001876001600160a01b03168152506133e6565b87516000908152600f6020526040902042905587518151919250612b7f91613561565b8181602001511015612bea5760405162461bcd60e51b815260206004820152602e60248201527f7072656d69756d2072656365697665642069732062656c6f77206d696e20657860448201526d706563746564207072656d69756d60901b6064820152608401610788565b80516020909101519097909650945050505050565b612c2a6040518060800160405280600081526020016000815260200160008152602001606081525090565b60035460405163016a54f560e41b8152600481018490526000916001600160a01b0316906316a54f509060240160006040518083038186803b158015612c6f57600080fd5b505afa158015612c83573d6000803e3d6000fd5b505050506040513d6000823e601f3d908101601f19168201604052612cab91908101906146b3565b60408051608080820183528351825260208085015190830152828401519282019290925291015160608201529392505050565b60015460035460405163c4158a5160e01b81526000926001600160a01b039081169263c4158a5192612d169290911690600401613b18565b6101606040518083038186803b158015612d2f57600080fd5b505afa158015612d43573d6000803e3d6000fd5b505050506040513d601f19601f82011682018060405250810190612d6791906146fa565b8051600580546001600160a01b03199081166001600160a01b03938416179091556040830151600980548316918416919091179055608083015160088054831691841691909117905560a083015160048054831691841691909117905560e0830151600680548316918416919091179055610100830151600780548316918416919091179055610120830151600a8054831691841691909117905561014090920151600b8054909316911617905550565b600081612e276012600a61404e565b6121eb908561462e565b612e636040518060a0016040528060008152602001600081526020016000815260200160008152602001600081525090565b600354604051630c4c4a0d60e41b81526004810184905260009182916001600160a01b039091169063c4c4a0d09060240160006040518083038186803b158015612eac57600080fd5b505afa158015612ec0573d6000803e3d6000fd5b505050506040513d6000823e601f3d908101601f19168201604052612ee89190810190614405565b915091506040518060a00160405280428360200151612f0791906140b1565b8152602001612f27846040015184604001516121d390919063ffffffff16565b8152600254600354604051630fb75cc960e31b81526020909301926001600160a01b0392831692637dbae64892612f6392911690600401613b18565b60206040518083038186803b158015612f7b57600080fd5b505afa158015612f8f573d6000803e3d6000fd5b505050506040513d601f19601f82011682018060405250810190612fb39190614242565b815260200183602001518152602001600960009054906101000a90046001600160a01b03166001600160a01b031663f369f2ac6040518163ffffffff1660e01b81526004016101406040518083038186803b15801561301157600080fd5b505afa158015613025573d6000803e3d6000fd5b505050506040513d601f19601f8201168201806040525081019061304991906147d4565b61012001519052949350505050565b6009546000906001600160a01b031663a57ce68287600481111561307e5761307e613ef7565b600481111561308f5761308f613ef7565b878787876040518663ffffffff1660e01b81526004016130b395949392919061485b565b60206040518083038186803b1580156130cb57600080fd5b505afa1580156130df573d6000803e3d6000fd5b505050506040513d601f19601f82011682018060405250810190611a9c9190614242565b60008183106122045781610c07565b60008060006040518060a00160405280888152602001878152602001868152602001858152602001600960009054906101000a90046001600160a01b03166001600160a01b031663f369f2ac6040518163ffffffff1660e01b81526004016101406040518083038186803b15801561318957600080fd5b505afa15801561319d573d6000803e3d6000fd5b505050506040513d601f19601f820116820180604052508101906131c191906147d4565b6101200151905260405163b6e62e5960e01b815290915073__$c0a17acec7091fec39628aa0eae1394872$__9063b6e62e5990613202908490600401614456565b604080518083038186803b15801561321957600080fd5b505af415801561322d573d6000803e3d6000fd5b505050506040513d601f19601f820116820180604052508101906132519190614276565b909890975095505050505050565b613267613a6f565b8151613272906135b7565b1580156132875750815161328590613668565b155b1561329557611e0e82613700565b611e0e82613725565b919050565b60025460035460405163ae58cf0b60e01b81526000926001600160a01b039081169263ae58cf0b926132dd929091169087906004016141cd565b602060405180830381600087803b1580156132f757600080fd5b505af115801561330b573d6000803e3d6000fd5b505050506040513d601f19601f8201168201806040525081019061332f9190614242565b905081811015611e0e57604051633c4976f160e21b81523060048201526024810183905260448101829052606401610788565b6007546040516339a427f160e01b815260048101849052602481018390526000916001600160a01b0316906339a427f19060440160206040518083038186803b1580156133ae57600080fd5b505afa1580156133c2573d6000803e3d6000fd5b505050506040513d601f19601f82011682018060405250810190610c079190614242565b6133ee613a6f565b6003546000906001600160a01b03166237f2bc61340a85613746565b6040518263ffffffff1660e01b81526004016134269190614889565b606060405180830381600087803b15801561344057600080fd5b505af1158015613454573d6000803e3d6000fd5b505050506040513d601f19601f8201168201806040525081019061347891906148ed565b6101008401519091506001600160a01b03161561353b57600d546003546101008501516001600160a01b039283169263a4ed57819216906134b887613746565b60800151602086015160408088015190516001600160e01b031960e088901b1681526001600160a01b03958616600482015294909316602485015260448401919091526064830152608482015260a401600060405180830381600087803b15801561352257600080fd5b505af1158015613536573d6000803e3d6000fd5b505050505b604080516060810182528251815260208084015190820152918101519082015292915050565b6000828152601160205260409020546128fc576000828152601160205260408120919091556010805460018101825591527f1b6847dc741a1b0cd08d278845f9d819d87b734759afb55fe2de5cb82a9ae6720155565b6000806135c26137e2565b604080516001808252818301909252919250600091906020808301908036833701905050905083816000815181106135fc576135fc613f3e565b602002602001018181525050600061361382611c40565b60008151811061362557613625613f3e565b602002602001015190508260600151601260ff16600a613645919061404e565b61364f919061405a565b81138061365f5750826060015181125b95945050505050565b6000806136736137e2565b604080516001808252818301909252919250600091906020808301908036833701905050905083816000815181106136ad576136ad613f3e565b60200260200101818152505060006136c4826122a2565b6000815181106136d6576136d6613f3e565b6020026020010151905082608001514282602001516136f591906140b1565b111595945050505050565b613708613a6f565b6003546000906001600160a01b03166392b4632c61340a85613746565b61372d613a6f565b6003546000906001600160a01b031663e4e83e3d61340a855b61374e613a90565b6040518061010001604052808360000151815260200183602001518152602001836040015181526020018360600151600481111561378e5761378e613ef7565b600481111561379f5761379f613ef7565b60048111156137b0576137b0613ef7565b8152602001836080015181526020018360a0015181526020018360c0015181526020018360e001518152509050919050565b61381b6040518060c001604052806000815260200160008152602001600081526020016000815260200160008152602001600081525090565b6008546040805163da53763160e01b815290516000926001600160a01b03169163da53763191600480830192610120929190829003018186803b15801561386157600080fd5b505afa158015613875573d6000803e3d6000fd5b505050506040513d601f19601f820116820180604052508101906138999190614948565b90506000600860009054906101000a90046001600160a01b03166001600160a01b031663ffae4b366040518163ffffffff1660e01b81526004016101806040518083038186803b1580156138ec57600080fd5b505afa158015613900573d6000803e3d6000fd5b505050506040513d601f19601f820116820180604052508101906139249190614965565b90506040518060c001604052808360e0015181526020018361010001518152602001600960009054906101000a90046001600160a01b03166001600160a01b031663f369f2ac6040518163ffffffff1660e01b81526004016101406040518083038186803b15801561399557600080fd5b505afa1580156139a9573d6000803e3d6000fd5b505050506040513d601f19601f820116820180604052508101906139cd91906147d4565b61012001518152602001826000015181526020018260400151815260200182602001518152509250505090565b6040518060c00160405280600081526020016000815260200160006004811115613a2657613a26613ef7565b8152602001600081526020016000815260200160006005811115613a4c57613a4c613ef7565b905290565b50805460008255906000526020600020908101906110c69190613ae6565b60405180606001604052806000815260200160008152602001600081525090565b60405180610100016040528060008152602001600081526020016000815260200160006004811115613ac457613ac4613ef7565b8152602001600081526020016000815260200160008152602001600081525090565b5b80821115613afb5760008155600101613ae7565b5090565b600060208284031215613b1157600080fd5b5035919050565b6001600160a01b0391909116815260200190565b634e487b7160e01b600052604160045260246000fd5b60405160a081016001600160401b0381118282101715613b6457613b64613b2c565b60405290565b60405161018081016001600160401b0381118282101715613b6457613b64613b2c565b60405160c081016001600160401b0381118282101715613b6457613b64613b2c565b60405161012081016001600160401b0381118282101715613b6457613b64613b2c565b60405161016081016001600160401b0381118282101715613b6457613b64613b2c565b60405161014081016001600160401b0381118282101715613b6457613b64613b2c565b604051601f8201601f191681016001600160401b0381118282101715613c4057613c40613b2c565b604052919050565b600060a08284031215613c5a57600080fd5b613c62613b42565b82358152602083013560208201526040830135604082015260608301356060820152608083013560808201528091505092915050565b60006101808284031215613cab57600080fd5b613cb3613b6a565b823581526020830135602082015260408301356040820152606083013560608201526080830135608082015260a083013560a082015260c083013560c082015260e083013560e08201526101008084013581830152506101208084013581830152506101408084013581830152506101608084013581830152508091505092915050565b6001600160a01b03811681146110c657600080fd5b60008060008060808587031215613d6257600080fd5b8435613d6d81613d37565b93506020850135613d7d81613d37565b92506040850135613d8d81613d37565b91506060850135613d9d81613d37565b939692955090935050565b600080600060608486031215613dbd57600080fd5b83359250602084013591506040840135613dd681613d37565b809150509250925092565b600060208284031215613df357600080fd5b8135610c0781613d37565b60008060408385031215613e1157600080fd5b823591506020830135613e2381613d37565b809150509250929050565b60008060408385031215613e4157600080fd5b50508035926020909101359150565b600581106110c657600080fd5b600681106110c657600080fd5b6000806000838503610100811215613e8157600080fd5b60c0811215613e8f57600080fd5b50613e98613b8d565b84358152602085013560208201526040850135613eb481613e50565b80604083015250606085013560608201526080850135608082015260a0850135613edd81613e5d565b60a08201529560c0850135955060e0909401359392505050565b634e487b7160e01b600052602160045260246000fd5b600581106110c657634e487b7160e01b600052602160045260246000fd5b60208101613f3883613f0d565b91905290565b634e487b7160e01b600052603260045260246000fd5b634e487b7160e01b600052601160045260246000fd5b600181815b80851115613fa5578160001904821115613f8b57613f8b613f54565b80851615613f9857918102915b93841c9390800290613f6f565b509250929050565b600082613fbc57506001611e0e565b81613fc957506000611e0e565b8160018114613fdf5760028114613fe957614005565b6001915050611e0e565b60ff841115613ffa57613ffa613f54565b50506001821b611e0e565b5060208310610133831016604e8410600b8410161715614028575081810a611e0e565b6140328383613f6a565b806000190482111561404657614046613f54565b029392505050565b6000610c078383613fad565b60008083128015600160ff1b85018412161561407857614078613f54565b6001600160ff1b038401831381161561409357614093613f54565b50500390565b600082198211156140ac576140ac613f54565b500190565b6000828210156140c3576140c3613f54565b500390565b6020808252818101527f4f776e61626c653a2063616c6c6572206973206e6f7420746865206f776e6572604082015260600190565b80516001600160681b038116811461329e57600080fd5b80516001600160801b038116811461329e57600080fd5b8051801515811461329e57600080fd5b600080600080600080600080610100898b03121561415857600080fd5b885161ffff8116811461416a57600080fd5b975061417860208a016140fd565b965061418660408a016140fd565b95506060890151945061419b60808a01614114565b93506141a960a08a01614114565b925060c089015191506141be60e08a0161412b565b90509295985092959890939650565b6001600160a01b03929092168252602082015260400190565b6000602082840312156141f857600080fd5b610c078261412b565b60006020828403121561421357600080fd5b8151610c0781613d37565b6020808252600a90820152691bdb9b1e4815985d5b1d60b21b604082015260600190565b60006020828403121561425457600080fd5b5051919050565b600060001982141561426f5761426f613f54565b5060010190565b6000806040838503121561428957600080fd5b505080516020909101519092909150565b600061012082840312156142ad57600080fd5b6142b5613baf565b9050815181526020820151602082015260408201516040820152606082015160608201526080820151608082015260a082015160a082015260c082015160c082015260e082015160e082015261010080830151818301525092915050565b60006001600160401b0382111561432c5761432c613b2c565b5060051b60200190565b600060a0828403121561434857600080fd5b614350613b42565b90508151815260208083015181830152604083015160408301526143766060840161412b565b606083015260808301516001600160401b0381111561439457600080fd5b8301601f810185136143a557600080fd5b80516143b86143b382614313565b613c18565b81815260059190911b820183019083810190878311156143d757600080fd5b928401925b828410156143f5578351825292840192908401906143dc565b6080860152509295945050505050565b600080610140838503121561441957600080fd5b614423848461429a565b6101208401519092506001600160401b0381111561444057600080fd5b61444c85828601614336565b9150509250929050565b600060a082019050825182526020830151602083015260408301516040830152606083015160608301526080830151608083015292915050565b6000600160ff1b8214156144a6576144a6613f54565b5060000390565b600060a082840312156144bf57600080fd5b6144c7613b42565b82518152602083015160208201526040830151604082015260608301516060820152608083015160808201528091505092915050565b6020808252825182820181905260009190848201906040850190845b8181101561453557835183529284019291840191600101614519565b50909695505050505050565b6000602080838503121561455457600080fd5b82516001600160401b0381111561456a57600080fd5b8301601f8101851361457b57600080fd5b80516145896143b382614313565b81815260c091820283018401918482019190888411156145a857600080fd5b938501935b838510156146225780858a0312156145c55760008081fd5b6145cd613b8d565b8551815286860151878201526040808701516145e881613e50565b90820152606086810151908201526080808701519082015260a08087015161460f81613e5d565b90820152835293840193918501916145ad565b50979650505050505050565b600081600019048311821515161561464857614648613f54565b500290565b60008261466a57634e487b7160e01b600052601260045260246000fd5b500490565b60208082526024908201527f6661696c656420746f2072657475726e2066756e64732066726f6d20737472616040820152637465677960e01b606082015260800190565b6000602082840312156146c557600080fd5b81516001600160401b038111156146db57600080fd5b6146e784828501614336565b949350505050565b805161329e81613d37565b6000610160828403121561470d57600080fd5b614715613bd2565b61471e836146ef565b815261472c602084016146ef565b602082015261473d604084016146ef565b604082015261474e606084016146ef565b606082015261475f608084016146ef565b608082015261477060a084016146ef565b60a082015261478160c084016146ef565b60c082015261479260e084016146ef565b60e08201526101006147a58185016146ef565b908201526101206147b78482016146ef565b908201526101406147c98482016146ef565b908201529392505050565b600061014082840312156147e757600080fd5b6147ef613bf5565b825181526020830151602082015260408301516040820152606083015160608201526080830151608082015260a083015160a082015260c083015160c082015260e083015160e08201526101008084015181830152506101208084015181830152508091505092915050565b60a0810161486887613f0d565b95815260208101949094526040840192909252606083015260809091015290565b60006101008201905082518252602083015160208301526040830151604083015260608301516148b881613f0d565b806060840152506080830151608083015260a083015160a083015260c083015160c083015260e083015160e083015292915050565b6000606082840312156148ff57600080fd5b604051606081016001600160401b038111828210171561492157614921613b2c565b80604052508251815260208301516020820152604083015160408201528091505092915050565b6000610120828403121561495b57600080fd5b610c07838361429a565b6000610180828403121561497857600080fd5b614980613b6a565b825181526020830151602082015260408301516040820152606083015160608201526080830151608082015260a083015160a082015260c083015160c082015260e083015160e08201526101008084015181830152506101208084015181830152506101408084015181830152506101606147c981850161412b56fea2646970667358221220cb8a35dec02402203437cf46f385ae29a24c3c215368a69eeab7a9eda93c548f64736f6c63430008090033",
  "libraries": {
    "BlackScholes": "0xEAB60138D1C2160062bbcD881D153961865aA510"
  },
  "devdoc": {
    "kind": "dev",
    "methods": {
      "_isValidExpiry(uint256)": {
        "details": "check if the expiry of the board is valid according to the strategy"
      },
      "doTrade(uint256,address)": {
        "details": "the vault should pass in a strike id, and the strategy would verify if the strike is valid on-chain.",
        "params": {
          "lyraRewardRecipient": "address to receive trading reward. This need to be whitelisted",
          "strikeId": "lyra strikeId to trade"
        },
        "returns": {
          "positionId": "positionId",
          "premiumReceived": "premiumReceived"
        }
      },
      "emergencyCloseAll(address)": {
        "details": "close all outstanding positions regardless of collat and send funds back to vault"
      },
      "getAllowedCloseAmount((uint256,uint256,uint8,uint256,uint256,uint8),uint256,uint256)": {
        "details": "calculates the position amount required to stay above the buffer collateral"
      },
      "getRequiredCollateral((uint256,uint256,uint256,uint256,uint256))": {
        "details": "calculate required collateral to add in the next trade. sell size is fixed as strategyDetail.size only add collateral if the additional sell will make the position out of buffer range never remove collateral from an existing position"
      },
      "isValidStrike((uint256,uint256,uint256,uint256,uint256))": {
        "details": "verify if the strike is valid for the strategy",
        "returns": {
          "isValid": "true if vol is withint [minVol, maxVol] and delta is within targetDelta +- maxDeltaGap"
        }
      },
      "owner()": {
        "details": "Returns the address of the current owner."
      },
      "reducePosition(uint256,uint256,address)": {
        "details": "use premium in strategy to reduce position size if collateral ratio is out of range"
      },
      "renounceOwnership()": {
        "details": "Leaves the contract without owner. It will not be possible to call `onlyOwner` functions anymore. Can only be called by the current owner. NOTE: Renouncing ownership will leave the contract without an owner, thereby removing any functionality that is only available to the owner."
      },
      "returnFundsAndClearStrikes()": {
        "details": "convert premium in quote asset into collateral asset and send it back to the vault."
      },
      "setBoard(uint256)": {
        "details": "set the board id that will be traded for the next round",
        "params": {
          "boardId": "lyra board Id."
        }
      },
      "setLyraAddresses(address,address,address,address)": {
        "details": "Assigns all lyra contracts",
        "params": {
          "_curveSwap": "Curve pool address for swapping sUSD and other stables via `exchange_with_best_rate`",
          "_feeCounter": "Fee counter addressu used to determine Lyra trading rewards",
          "_lyraRegistry": "LyraRegistry address which holds latest market and global addressess",
          "_optionMarket": "OptionMarket address"
        }
      },
      "setStrategyDetail((uint256,uint256,int256,uint256,uint256,uint256,uint256,uint256,uint256,uint256,uint256,uint256))": {
        "details": "update the strategy detail for the new round."
      },
      "transferOwnership(address)": {
        "details": "Transfers ownership of the contract to a new account (`newOwner`). Can only be called by the current owner."
      }
    },
    "version": 1
  },
  "userdoc": {
    "kind": "user",
    "methods": {
      "_optionPriceGWAV(uint256,uint256)": {
        "notice": "the option price GWAV for a given `strikeId` with GWAV interval `secondsAgo`"
      },
      "doTrade(uint256,address)": {
        "notice": "sell a fix aomunt of options and collect premium"
      },
      "updateDelegateApproval()": {
        "notice": "In case of an update to the synthetix contract that revokes the approval"
      }
    },
    "version": 1
  },
  "storageLayout": {
    "storage": [
      {
        "astId": 48186,
        "contract": "contracts/strategies/DeltaShortStrategy.sol:DeltaShortStrategy",
        "label": "_owner",
        "offset": 0,
        "slot": "0",
        "type": "t_address"
      },
      {
        "astId": 21683,
        "contract": "contracts/strategies/DeltaShortStrategy.sol:DeltaShortStrategy",
        "label": "lyraRegistry",
        "offset": 0,
        "slot": "1",
        "type": "t_contract(LyraRegistry)23780"
      },
      {
        "astId": 21686,
        "contract": "contracts/strategies/DeltaShortStrategy.sol:DeltaShortStrategy",
        "label": "synthetixAdapter",
        "offset": 0,
        "slot": "2",
        "type": "t_contract(SynthetixAdapter)17112"
      },
      {
        "astId": 21689,
        "contract": "contracts/strategies/DeltaShortStrategy.sol:DeltaShortStrategy",
        "label": "optionMarket",
        "offset": 0,
        "slot": "3",
        "type": "t_contract(OptionMarket)9952"
      },
      {
        "astId": 21692,
        "contract": "contracts/strategies/DeltaShortStrategy.sol:DeltaShortStrategy",
        "label": "optionToken",
        "offset": 0,
        "slot": "4",
        "type": "t_contract(OptionToken)13512"
      },
      {
        "astId": 21695,
        "contract": "contracts/strategies/DeltaShortStrategy.sol:DeltaShortStrategy",
        "label": "liquidityPool",
        "offset": 0,
        "slot": "5",
        "type": "t_contract(LiquidityPool)2849"
      },
      {
        "astId": 21698,
        "contract": "contracts/strategies/DeltaShortStrategy.sol:DeltaShortStrategy",
        "label": "shortCollateral",
        "offset": 0,
        "slot": "6",
        "type": "t_contract(ShortCollateral)14788"
      },
      {
        "astId": 21701,
        "contract": "contracts/strategies/DeltaShortStrategy.sol:DeltaShortStrategy",
        "label": "gwavOracle",
        "offset": 0,
        "slot": "7",
        "type": "t_contract(GWAVOracle)20428"
      },
      {
        "astId": 21704,
        "contract": "contracts/strategies/DeltaShortStrategy.sol:DeltaShortStrategy",
        "label": "optionPricer",
        "offset": 0,
        "slot": "8",
        "type": "t_contract(OptionMarketPricer)11329"
      },
      {
        "astId": 21707,
        "contract": "contracts/strategies/DeltaShortStrategy.sol:DeltaShortStrategy",
        "label": "greekCache",
        "offset": 0,
        "slot": "9",
        "type": "t_contract(OptionGreekCache)6508"
      },
      {
        "astId": 21710,
        "contract": "contracts/strategies/DeltaShortStrategy.sol:DeltaShortStrategy",
        "label": "quoteAsset",
        "offset": 0,
        "slot": "10",
        "type": "t_contract(IERC20)48947"
      },
      {
        "astId": 21713,
        "contract": "contracts/strategies/DeltaShortStrategy.sol:DeltaShortStrategy",
        "label": "baseAsset",
        "offset": 0,
        "slot": "11",
        "type": "t_contract(IERC20)48947"
      },
      {
        "astId": 21716,
        "contract": "contracts/strategies/DeltaShortStrategy.sol:DeltaShortStrategy",
        "label": "curveSwap",
        "offset": 0,
        "slot": "12",
        "type": "t_contract(ICurve)17307"
      },
      {
        "astId": 21719,
        "contract": "contracts/strategies/DeltaShortStrategy.sol:DeltaShortStrategy",
        "label": "feeCounter",
        "offset": 0,
        "slot": "13",
        "type": "t_contract(BasicFeeCounter)20045"
      },
      {
        "astId": 39140,
        "contract": "contracts/strategies/DeltaShortStrategy.sol:DeltaShortStrategy",
        "label": "collateralAsset",
        "offset": 0,
        "slot": "14",
        "type": "t_contract(IERC20)33957"
      },
      {
        "astId": 39144,
        "contract": "contracts/strategies/DeltaShortStrategy.sol:DeltaShortStrategy",
        "label": "lastTradeTimestamp",
        "offset": 0,
        "slot": "15",
        "type": "t_mapping(t_uint256,t_uint256)"
      },
      {
        "astId": 39147,
        "contract": "contracts/strategies/DeltaShortStrategy.sol:DeltaShortStrategy",
        "label": "activeStrikeIds",
        "offset": 0,
        "slot": "16",
        "type": "t_array(t_uint256)dyn_storage"
      },
      {
        "astId": 39151,
        "contract": "contracts/strategies/DeltaShortStrategy.sol:DeltaShortStrategy",
        "label": "strikeToPositionId",
        "offset": 0,
        "slot": "17",
        "type": "t_mapping(t_uint256,t_uint256)"
      },
      {
        "astId": 38293,
        "contract": "contracts/strategies/DeltaShortStrategy.sol:DeltaShortStrategy",
        "label": "strategyDetail",
        "offset": 0,
        "slot": "18",
        "type": "t_struct(DeltaShortStrategyDetail)38290_storage"
      },
      {
        "astId": 38295,
        "contract": "contracts/strategies/DeltaShortStrategy.sol:DeltaShortStrategy",
        "label": "activeExpiry",
        "offset": 0,
        "slot": "30",
        "type": "t_uint256"
      }
    ],
    "types": {
      "t_address": {
        "encoding": "inplace",
        "label": "address",
        "numberOfBytes": "20"
      },
      "t_array(t_uint256)dyn_storage": {
        "base": "t_uint256",
        "encoding": "dynamic_array",
        "label": "uint256[]",
        "numberOfBytes": "32"
      },
      "t_contract(BasicFeeCounter)20045": {
        "encoding": "inplace",
        "label": "contract BasicFeeCounter",
        "numberOfBytes": "20"
      },
      "t_contract(GWAVOracle)20428": {
        "encoding": "inplace",
        "label": "contract GWAVOracle",
        "numberOfBytes": "20"
      },
      "t_contract(ICurve)17307": {
        "encoding": "inplace",
        "label": "contract ICurve",
        "numberOfBytes": "20"
      },
      "t_contract(IERC20)33957": {
        "encoding": "inplace",
        "label": "contract IERC20",
        "numberOfBytes": "20"
      },
      "t_contract(IERC20)48947": {
        "encoding": "inplace",
        "label": "contract IERC20",
        "numberOfBytes": "20"
      },
      "t_contract(LiquidityPool)2849": {
        "encoding": "inplace",
        "label": "contract LiquidityPool",
        "numberOfBytes": "20"
      },
      "t_contract(LyraRegistry)23780": {
        "encoding": "inplace",
        "label": "contract LyraRegistry",
        "numberOfBytes": "20"
      },
      "t_contract(OptionGreekCache)6508": {
        "encoding": "inplace",
        "label": "contract OptionGreekCache",
        "numberOfBytes": "20"
      },
      "t_contract(OptionMarket)9952": {
        "encoding": "inplace",
        "label": "contract OptionMarket",
        "numberOfBytes": "20"
      },
      "t_contract(OptionMarketPricer)11329": {
        "encoding": "inplace",
        "label": "contract OptionMarketPricer",
        "numberOfBytes": "20"
      },
      "t_contract(OptionToken)13512": {
        "encoding": "inplace",
        "label": "contract OptionToken",
        "numberOfBytes": "20"
      },
      "t_contract(ShortCollateral)14788": {
        "encoding": "inplace",
        "label": "contract ShortCollateral",
        "numberOfBytes": "20"
      },
      "t_contract(SynthetixAdapter)17112": {
        "encoding": "inplace",
        "label": "contract SynthetixAdapter",
        "numberOfBytes": "20"
      },
      "t_int256": {
        "encoding": "inplace",
        "label": "int256",
        "numberOfBytes": "32"
      },
      "t_mapping(t_uint256,t_uint256)": {
        "encoding": "mapping",
        "key": "t_uint256",
        "label": "mapping(uint256 => uint256)",
        "numberOfBytes": "32",
        "value": "t_uint256"
      },
      "t_struct(DeltaShortStrategyDetail)38290_storage": {
        "encoding": "inplace",
        "label": "struct DeltaShortStrategy.DeltaShortStrategyDetail",
        "members": [
          {
            "astId": 38267,
            "contract": "contracts/strategies/DeltaShortStrategy.sol:DeltaShortStrategy",
            "label": "minTimeToExpiry",
            "offset": 0,
            "slot": "0",
            "type": "t_uint256"
          },
          {
            "astId": 38269,
            "contract": "contracts/strategies/DeltaShortStrategy.sol:DeltaShortStrategy",
            "label": "maxTimeToExpiry",
            "offset": 0,
            "slot": "1",
            "type": "t_uint256"
          },
          {
            "astId": 38271,
            "contract": "contracts/strategies/DeltaShortStrategy.sol:DeltaShortStrategy",
            "label": "targetDelta",
            "offset": 0,
            "slot": "2",
            "type": "t_int256"
          },
          {
            "astId": 38273,
            "contract": "contracts/strategies/DeltaShortStrategy.sol:DeltaShortStrategy",
            "label": "maxDeltaGap",
            "offset": 0,
            "slot": "3",
            "type": "t_uint256"
          },
          {
            "astId": 38275,
            "contract": "contracts/strategies/DeltaShortStrategy.sol:DeltaShortStrategy",
            "label": "minVol",
            "offset": 0,
            "slot": "4",
            "type": "t_uint256"
          },
          {
            "astId": 38277,
            "contract": "contracts/strategies/DeltaShortStrategy.sol:DeltaShortStrategy",
            "label": "maxVol",
            "offset": 0,
            "slot": "5",
            "type": "t_uint256"
          },
          {
            "astId": 38279,
            "contract": "contracts/strategies/DeltaShortStrategy.sol:DeltaShortStrategy",
            "label": "size",
            "offset": 0,
            "slot": "6",
            "type": "t_uint256"
          },
          {
            "astId": 38281,
            "contract": "contracts/strategies/DeltaShortStrategy.sol:DeltaShortStrategy",
            "label": "minTradeInterval",
            "offset": 0,
            "slot": "7",
            "type": "t_uint256"
          },
          {
            "astId": 38283,
            "contract": "contracts/strategies/DeltaShortStrategy.sol:DeltaShortStrategy",
            "label": "maxVolVariance",
            "offset": 0,
            "slot": "8",
            "type": "t_uint256"
          },
          {
            "astId": 38285,
            "contract": "contracts/strategies/DeltaShortStrategy.sol:DeltaShortStrategy",
            "label": "gwavPeriod",
            "offset": 0,
            "slot": "9",
            "type": "t_uint256"
          },
          {
            "astId": 38287,
            "contract": "contracts/strategies/DeltaShortStrategy.sol:DeltaShortStrategy",
            "label": "collatBuffer",
            "offset": 0,
            "slot": "10",
            "type": "t_uint256"
          },
          {
            "astId": 38289,
            "contract": "contracts/strategies/DeltaShortStrategy.sol:DeltaShortStrategy",
            "label": "collatPercent",
            "offset": 0,
            "slot": "11",
            "type": "t_uint256"
          }
        ],
        "numberOfBytes": "384"
      },
      "t_uint256": {
        "encoding": "inplace",
        "label": "uint256",
        "numberOfBytes": "32"
      }
    }
  }
}