{
  "address": "0xA51F6B20226B2d6e8DCcEB08D67Ff869faf16095",
  "abi": [
    {
      "inputs": [
        {
          "internalType": "address",
          "name": "_susd",
          "type": "address"
        },
        {
          "internalType": "address",
          "name": "_feeRecipient",
          "type": "address"
        },
        {
          "internalType": "uint256",
          "name": "_roundDuration",
          "type": "uint256"
        },
        {
          "internalType": "string",
          "name": "_tokenName",
          "type": "string"
        },
        {
          "internalType": "string",
          "name": "_tokenSymbol",
          "type": "string"
        },
        {
          "components": [
            {
              "internalType": "uint8",
              "name": "decimals",
              "type": "uint8"
            },
            {
              "internalType": "uint104",
              "name": "cap",
              "type": "uint104"
            },
            {
              "internalType": "address",
              "name": "asset",
              "type": "address"
            }
          ],
          "internalType": "struct Vault.VaultParams",
          "name": "_vaultParams",
          "type": "tuple"
        }
      ],
      "stateMutability": "nonpayable",
      "type": "constructor"
    },
    {
      "anonymous": false,
      "inputs": [
        {
          "indexed": true,
          "internalType": "address",
          "name": "owner",
          "type": "address"
        },
        {
          "indexed": true,
          "internalType": "address",
          "name": "spender",
          "type": "address"
        },
        {
          "indexed": false,
          "internalType": "uint256",
          "name": "value",
          "type": "uint256"
        }
      ],
      "name": "Approval",
      "type": "event"
    },
    {
      "anonymous": false,
      "inputs": [
        {
          "indexed": false,
          "internalType": "uint256",
          "name": "oldCap",
          "type": "uint256"
        },
        {
          "indexed": false,
          "internalType": "uint256",
          "name": "newCap",
          "type": "uint256"
        },
        {
          "indexed": false,
          "internalType": "address",
          "name": "manager",
          "type": "address"
        }
      ],
      "name": "CapSet",
      "type": "event"
    },
    {
      "anonymous": false,
      "inputs": [
        {
          "indexed": false,
          "internalType": "uint256",
          "name": "performanceFee",
          "type": "uint256"
        },
        {
          "indexed": false,
          "internalType": "uint256",
          "name": "vaultFee",
          "type": "uint256"
        },
        {
          "indexed": false,
          "internalType": "uint256",
          "name": "round",
          "type": "uint256"
        },
        {
          "indexed": true,
          "internalType": "address",
          "name": "feeRecipient",
          "type": "address"
        }
      ],
      "name": "CollectVaultFees",
      "type": "event"
    },
    {
      "anonymous": false,
      "inputs": [
        {
          "indexed": true,
          "internalType": "address",
          "name": "account",
          "type": "address"
        },
        {
          "indexed": false,
          "internalType": "uint256",
          "name": "amount",
          "type": "uint256"
        },
        {
          "indexed": false,
          "internalType": "uint256",
          "name": "round",
          "type": "uint256"
        }
      ],
      "name": "Deposit",
      "type": "event"
    },
    {
      "anonymous": false,
      "inputs": [
        {
          "indexed": true,
          "internalType": "address",
          "name": "account",
          "type": "address"
        },
        {
          "indexed": false,
          "internalType": "uint256",
          "name": "shares",
          "type": "uint256"
        },
        {
          "indexed": false,
          "internalType": "uint256",
          "name": "round",
          "type": "uint256"
        }
      ],
      "name": "InitiateWithdraw",
      "type": "event"
    },
    {
      "anonymous": false,
      "inputs": [
        {
          "indexed": false,
          "internalType": "uint256",
          "name": "managementFee",
          "type": "uint256"
        },
        {
          "indexed": false,
          "internalType": "uint256",
          "name": "newManagementFee",
          "type": "uint256"
        }
      ],
      "name": "ManagementFeeSet",
      "type": "event"
    },
    {
      "anonymous": false,
      "inputs": [
        {
          "indexed": true,
          "internalType": "address",
          "name": "previousOwner",
          "type": "address"
        },
        {
          "indexed": true,
          "internalType": "address",
          "name": "newOwner",
          "type": "address"
        }
      ],
      "name": "OwnershipTransferred",
      "type": "event"
    },
    {
      "anonymous": false,
      "inputs": [
        {
          "indexed": false,
          "internalType": "uint256",
          "name": "performanceFee",
          "type": "uint256"
        },
        {
          "indexed": false,
          "internalType": "uint256",
          "name": "newPerformanceFee",
          "type": "uint256"
        }
      ],
      "name": "PerformanceFeeSet",
      "type": "event"
    },
    {
      "anonymous": false,
      "inputs": [
        {
          "indexed": true,
          "internalType": "address",
          "name": "account",
          "type": "address"
        },
        {
          "indexed": false,
          "internalType": "uint256",
          "name": "share",
          "type": "uint256"
        },
        {
          "indexed": false,
          "internalType": "uint256",
          "name": "round",
          "type": "uint256"
        }
      ],
      "name": "Redeem",
      "type": "event"
    },
    {
      "anonymous": false,
      "inputs": [
        {
          "indexed": false,
          "internalType": "uint16",
          "name": "roundId",
          "type": "uint16"
        },
        {
          "indexed": false,
          "internalType": "uint104",
          "name": "lockAmount",
          "type": "uint104"
        }
      ],
      "name": "RoundClosed",
      "type": "event"
    },
    {
      "anonymous": false,
      "inputs": [
        {
          "indexed": false,
          "internalType": "uint16",
          "name": "roundId",
          "type": "uint16"
        },
        {
          "indexed": false,
          "internalType": "uint104",
          "name": "lockAmount",
          "type": "uint104"
        }
      ],
      "name": "RoundStarted",
      "type": "event"
    },
    {
      "anonymous": false,
      "inputs": [
        {
          "indexed": false,
          "internalType": "address",
          "name": "strategy",
          "type": "address"
        }
      ],
      "name": "StrategyUpdated",
      "type": "event"
    },
    {
      "anonymous": false,
      "inputs": [
        {
          "indexed": false,
          "internalType": "address",
          "name": "user",
          "type": "address"
        },
        {
          "indexed": false,
          "internalType": "uint256",
          "name": "positionId",
          "type": "uint256"
        },
        {
          "indexed": false,
          "internalType": "uint256",
          "name": "premium",
          "type": "uint256"
        },
        {
          "indexed": false,
          "internalType": "uint256",
          "name": "capitalUsed",
          "type": "uint256"
        }
      ],
      "name": "Trade",
      "type": "event"
    },
    {
      "anonymous": false,
      "inputs": [
        {
          "indexed": true,
          "internalType": "address",
          "name": "from",
          "type": "address"
        },
        {
          "indexed": true,
          "internalType": "address",
          "name": "to",
          "type": "address"
        },
        {
          "indexed": false,
          "internalType": "uint256",
          "name": "value",
          "type": "uint256"
        }
      ],
      "name": "Transfer",
      "type": "event"
    },
    {
      "anonymous": false,
      "inputs": [
        {
          "indexed": true,
          "internalType": "address",
          "name": "account",
          "type": "address"
        },
        {
          "indexed": false,
          "internalType": "uint256",
          "name": "amount",
          "type": "uint256"
        },
        {
          "indexed": false,
          "internalType": "uint256",
          "name": "shares",
          "type": "uint256"
        }
      ],
      "name": "Withdraw",
      "type": "event"
    },
    {
      "inputs": [
        {
          "internalType": "address",
          "name": "account",
          "type": "address"
        }
      ],
      "name": "accountVaultBalance",
      "outputs": [
        {
          "internalType": "uint256",
          "name": "",
          "type": "uint256"
        }
      ],
      "stateMutability": "view",
      "type": "function"
    },
    {
      "inputs": [
        {
          "internalType": "address",
          "name": "owner",
          "type": "address"
        },
        {
          "internalType": "address",
          "name": "spender",
          "type": "address"
        }
      ],
      "name": "allowance",
      "outputs": [
        {
          "internalType": "uint256",
          "name": "",
          "type": "uint256"
        }
      ],
      "stateMutability": "view",
      "type": "function"
    },
    {
      "inputs": [
        {
          "internalType": "address",
          "name": "spender",
          "type": "address"
        },
        {
          "internalType": "uint256",
          "name": "amount",
          "type": "uint256"
        }
      ],
      "name": "approve",
      "outputs": [
        {
          "internalType": "bool",
          "name": "",
          "type": "bool"
        }
      ],
      "stateMutability": "nonpayable",
      "type": "function"
    },
    {
      "inputs": [
        {
          "internalType": "address",
          "name": "account",
          "type": "address"
        }
      ],
      "name": "balanceOf",
      "outputs": [
        {
          "internalType": "uint256",
          "name": "",
          "type": "uint256"
        }
      ],
      "stateMutability": "view",
      "type": "function"
    },
    {
      "inputs": [],
      "name": "closeRound",
      "outputs": [],
      "stateMutability": "nonpayable",
      "type": "function"
    },
    {
      "inputs": [],
      "name": "collateralAsset",
      "outputs": [
        {
          "internalType": "contract IERC20",
          "name": "",
          "type": "address"
        }
      ],
      "stateMutability": "view",
      "type": "function"
    },
    {
      "inputs": [],
      "name": "completeWithdraw",
      "outputs": [],
      "stateMutability": "nonpayable",
      "type": "function"
    },
    {
      "inputs": [],
      "name": "decimals",
      "outputs": [
        {
          "internalType": "uint8",
          "name": "",
          "type": "uint8"
        }
      ],
      "stateMutability": "view",
      "type": "function"
    },
    {
      "inputs": [
        {
          "internalType": "address",
          "name": "spender",
          "type": "address"
        },
        {
          "internalType": "uint256",
          "name": "subtractedValue",
          "type": "uint256"
        }
      ],
      "name": "decreaseAllowance",
      "outputs": [
        {
          "internalType": "bool",
          "name": "",
          "type": "bool"
        }
      ],
      "stateMutability": "nonpayable",
      "type": "function"
    },
    {
      "inputs": [
        {
          "internalType": "uint256",
          "name": "amount",
          "type": "uint256"
        }
      ],
      "name": "deposit",
      "outputs": [],
      "stateMutability": "nonpayable",
      "type": "function"
    },
    {
      "inputs": [
        {
          "internalType": "uint256",
          "name": "amount",
          "type": "uint256"
        },
        {
          "internalType": "address",
          "name": "creditor",
          "type": "address"
        }
      ],
      "name": "depositFor",
      "outputs": [],
      "stateMutability": "nonpayable",
      "type": "function"
    },
    {
      "inputs": [
        {
          "internalType": "address",
          "name": "",
          "type": "address"
        }
      ],
      "name": "depositReceipts",
      "outputs": [
        {
          "internalType": "uint16",
          "name": "round",
          "type": "uint16"
        },
        {
          "internalType": "uint104",
          "name": "amount",
          "type": "uint104"
        },
        {
          "internalType": "uint128",
          "name": "unredeemedShares",
          "type": "uint128"
        }
      ],
      "stateMutability": "view",
      "type": "function"
    },
    {
      "inputs": [],
      "name": "emergencyCloseRound",
      "outputs": [],
      "stateMutability": "nonpayable",
      "type": "function"
    },
    {
      "inputs": [],
      "name": "feeRecipient",
      "outputs": [
        {
          "internalType": "address",
          "name": "",
          "type": "address"
        }
      ],
      "stateMutability": "view",
      "type": "function"
    },
    {
      "inputs": [
        {
          "internalType": "address",
          "name": "spender",
          "type": "address"
        },
        {
          "internalType": "uint256",
          "name": "addedValue",
          "type": "uint256"
        }
      ],
      "name": "increaseAllowance",
      "outputs": [
        {
          "internalType": "bool",
          "name": "",
          "type": "bool"
        }
      ],
      "stateMutability": "nonpayable",
      "type": "function"
    },
    {
      "inputs": [
        {
          "internalType": "uint256",
          "name": "numShares",
          "type": "uint256"
        }
      ],
      "name": "initiateWithdraw",
      "outputs": [],
      "stateMutability": "nonpayable",
      "type": "function"
    },
    {
      "inputs": [],
      "name": "lastQueuedWithdrawAmount",
      "outputs": [
        {
          "internalType": "uint256",
          "name": "",
          "type": "uint256"
        }
      ],
      "stateMutability": "view",
      "type": "function"
    },
    {
      "inputs": [],
      "name": "lyraRewardRecipient",
      "outputs": [
        {
          "internalType": "address",
          "name": "",
          "type": "address"
        }
      ],
      "stateMutability": "view",
      "type": "function"
    },
    {
      "inputs": [],
      "name": "managementFee",
      "outputs": [
        {
          "internalType": "uint256",
          "name": "",
          "type": "uint256"
        }
      ],
      "stateMutability": "view",
      "type": "function"
    },
    {
      "inputs": [],
      "name": "maxRedeem",
      "outputs": [],
      "stateMutability": "nonpayable",
      "type": "function"
    },
    {
      "inputs": [],
      "name": "name",
      "outputs": [
        {
          "internalType": "string",
          "name": "",
          "type": "string"
        }
      ],
      "stateMutability": "view",
      "type": "function"
    },
    {
      "inputs": [],
      "name": "optionAllocation",
      "outputs": [
        {
          "internalType": "uint256",
          "name": "",
          "type": "uint256"
        }
      ],
      "stateMutability": "view",
      "type": "function"
    },
    {
      "inputs": [],
      "name": "owner",
      "outputs": [
        {
          "internalType": "address",
          "name": "",
          "type": "address"
        }
      ],
      "stateMutability": "view",
      "type": "function"
    },
    {
      "inputs": [],
      "name": "performanceFee",
      "outputs": [
        {
          "internalType": "uint256",
          "name": "",
          "type": "uint256"
        }
      ],
      "stateMutability": "view",
      "type": "function"
    },
    {
      "inputs": [],
      "name": "premiumAsset",
      "outputs": [
        {
          "internalType": "contract IERC20",
          "name": "",
          "type": "address"
        }
      ],
      "stateMutability": "view",
      "type": "function"
    },
    {
      "inputs": [],
      "name": "pricePerShare",
      "outputs": [
        {
          "internalType": "uint256",
          "name": "",
          "type": "uint256"
        }
      ],
      "stateMutability": "view",
      "type": "function"
    },
    {
      "inputs": [
        {
          "internalType": "uint256",
          "name": "numShares",
          "type": "uint256"
        }
      ],
      "name": "redeem",
      "outputs": [],
      "stateMutability": "nonpayable",
      "type": "function"
    },
    {
      "inputs": [
        {
          "internalType": "uint256",
          "name": "positionId",
          "type": "uint256"
        },
        {
          "internalType": "uint256",
          "name": "closeAmount",
          "type": "uint256"
        }
      ],
      "name": "reducePosition",
      "outputs": [],
      "stateMutability": "nonpayable",
      "type": "function"
    },
    {
      "inputs": [],
      "name": "renounceOwnership",
      "outputs": [],
      "stateMutability": "nonpayable",
      "type": "function"
    },
    {
      "inputs": [
        {
          "internalType": "uint256",
          "name": "",
          "type": "uint256"
        }
      ],
      "name": "roundPricePerShare",
      "outputs": [
        {
          "internalType": "uint256",
          "name": "",
          "type": "uint256"
        }
      ],
      "stateMutability": "view",
      "type": "function"
    },
    {
      "inputs": [
        {
          "internalType": "uint256",
          "name": "newCap",
          "type": "uint256"
        }
      ],
      "name": "setCap",
      "outputs": [],
      "stateMutability": "nonpayable",
      "type": "function"
    },
    {
      "inputs": [
        {
          "internalType": "address",
          "name": "newFeeRecipient",
          "type": "address"
        }
      ],
      "name": "setFeeRecipient",
      "outputs": [],
      "stateMutability": "nonpayable",
      "type": "function"
    },
    {
      "inputs": [
        {
          "internalType": "address",
          "name": "recipient",
          "type": "address"
        }
      ],
      "name": "setLyraRewardRecipient",
      "outputs": [],
      "stateMutability": "nonpayable",
      "type": "function"
    },
    {
      "inputs": [
        {
          "internalType": "uint256",
          "name": "newManagementFee",
          "type": "uint256"
        }
      ],
      "name": "setManagementFee",
      "outputs": [],
      "stateMutability": "nonpayable",
      "type": "function"
    },
    {
      "inputs": [
        {
          "internalType": "uint256",
          "name": "newPerformanceFee",
          "type": "uint256"
        }
      ],
      "name": "setPerformanceFee",
      "outputs": [],
      "stateMutability": "nonpayable",
      "type": "function"
    },
    {
      "inputs": [
        {
          "internalType": "address",
          "name": "_strategy",
          "type": "address"
        }
      ],
      "name": "setStrategy",
      "outputs": [],
      "stateMutability": "nonpayable",
      "type": "function"
    },
    {
      "inputs": [
        {
          "internalType": "address",
          "name": "account",
          "type": "address"
        }
      ],
      "name": "shareBalances",
      "outputs": [
        {
          "internalType": "uint256",
          "name": "heldByAccount",
          "type": "uint256"
        },
        {
          "internalType": "uint256",
          "name": "heldByVault",
          "type": "uint256"
        }
      ],
      "stateMutability": "view",
      "type": "function"
    },
    {
      "inputs": [
        {
          "internalType": "address",
          "name": "account",
          "type": "address"
        }
      ],
      "name": "shares",
      "outputs": [
        {
          "internalType": "uint256",
          "name": "",
          "type": "uint256"
        }
      ],
      "stateMutability": "view",
      "type": "function"
    },
    {
      "inputs": [
        {
          "internalType": "uint256",
          "name": "boardId",
          "type": "uint256"
        }
      ],
      "name": "startNextRound",
      "outputs": [],
      "stateMutability": "nonpayable",
      "type": "function"
    },
    {
      "inputs": [],
      "name": "strategy",
      "outputs": [
        {
          "internalType": "contract IStrategy",
          "name": "",
          "type": "address"
        }
      ],
      "stateMutability": "view",
      "type": "function"
    },
    {
      "inputs": [],
      "name": "symbol",
      "outputs": [
        {
          "internalType": "string",
          "name": "",
          "type": "string"
        }
      ],
      "stateMutability": "view",
      "type": "function"
    },
    {
      "inputs": [],
      "name": "totalBalance",
      "outputs": [
        {
          "internalType": "uint256",
          "name": "",
          "type": "uint256"
        }
      ],
      "stateMutability": "view",
      "type": "function"
    },
    {
      "inputs": [],
      "name": "totalSupply",
      "outputs": [
        {
          "internalType": "uint256",
          "name": "",
          "type": "uint256"
        }
      ],
      "stateMutability": "view",
      "type": "function"
    },
    {
      "inputs": [
        {
          "internalType": "uint256",
          "name": "strikeId",
          "type": "uint256"
        }
      ],
      "name": "trade",
      "outputs": [],
      "stateMutability": "nonpayable",
      "type": "function"
    },
    {
      "inputs": [
        {
          "internalType": "address",
          "name": "to",
          "type": "address"
        },
        {
          "internalType": "uint256",
          "name": "amount",
          "type": "uint256"
        }
      ],
      "name": "transfer",
      "outputs": [
        {
          "internalType": "bool",
          "name": "",
          "type": "bool"
        }
      ],
      "stateMutability": "nonpayable",
      "type": "function"
    },
    {
      "inputs": [
        {
          "internalType": "address",
          "name": "from",
          "type": "address"
        },
        {
          "internalType": "address",
          "name": "to",
          "type": "address"
        },
        {
          "internalType": "uint256",
          "name": "amount",
          "type": "uint256"
        }
      ],
      "name": "transferFrom",
      "outputs": [
        {
          "internalType": "bool",
          "name": "",
          "type": "bool"
        }
      ],
      "stateMutability": "nonpayable",
      "type": "function"
    },
    {
      "inputs": [
        {
          "internalType": "address",
          "name": "newOwner",
          "type": "address"
        }
      ],
      "name": "transferOwnership",
      "outputs": [],
      "stateMutability": "nonpayable",
      "type": "function"
    },
    {
      "inputs": [],
      "name": "vaultParams",
      "outputs": [
        {
          "internalType": "uint8",
          "name": "decimals",
          "type": "uint8"
        },
        {
          "internalType": "uint104",
          "name": "cap",
          "type": "uint104"
        },
        {
          "internalType": "address",
          "name": "asset",
          "type": "address"
        }
      ],
      "stateMutability": "view",
      "type": "function"
    },
    {
      "inputs": [],
      "name": "vaultState",
      "outputs": [
        {
          "internalType": "uint16",
          "name": "round",
          "type": "uint16"
        },
        {
          "internalType": "uint104",
          "name": "lockedAmount",
          "type": "uint104"
        },
        {
          "internalType": "uint104",
          "name": "lastLockedAmount",
          "type": "uint104"
        },
        {
          "internalType": "uint256",
          "name": "lockedAmountLeft",
          "type": "uint256"
        },
        {
          "internalType": "uint128",
          "name": "totalPending",
          "type": "uint128"
        },
        {
          "internalType": "uint128",
          "name": "queuedWithdrawShares",
          "type": "uint128"
        },
        {
          "internalType": "uint256",
          "name": "nextRoundReadyTimestamp",
          "type": "uint256"
        },
        {
          "internalType": "bool",
          "name": "roundInProgress",
          "type": "bool"
        }
      ],
      "stateMutability": "view",
      "type": "function"
    },
    {
      "inputs": [
        {
          "internalType": "address",
          "name": "",
          "type": "address"
        }
      ],
      "name": "withdrawals",
      "outputs": [
        {
          "internalType": "uint16",
          "name": "round",
          "type": "uint16"
        },
        {
          "internalType": "uint128",
          "name": "shares",
          "type": "uint128"
        }
      ],
      "stateMutability": "view",
      "type": "function"
    }
  ],
  "transactionHash": "0x751aca86c2c722477899931f1280a539a9953c5ecfe630219cf6b77de4eff51a",
  "args": [
    "0xBc8B64B2B32F32C6c4F14FfCd2CC2005272541CD",
    "0xf39Fd6e51aad88F6F4ce6aB8827279cffFb92266",
    604800,
    "LyraVault Share",
    "Lyra VS",
    {
      "decimals": 18,
      "cap": "100000000000000000000000",
      "asset": "0xae3e748cF9b12720192912EE6c67e42E80b6ba4F"
    }
  ],
  "numDeployments": 1,
  "solcInputHash": "80ed7d4eac10dd586e35c921f701831d",
  "bytecode": "0x60e06040523480156200001157600080fd5b5060405162003bc238038062003bc2833981016040819052620000349162000472565b6001600055848484848482826200004b3362000202565b815162000060906005906020850190620002a6565b50805162000076906006906020840190620002a6565b5050601280546001600160a01b0319166001600160a01b03881617905550600084620000aa620f42406301e133806200057b565b620000b69190620005a9565b60808190528251600b805460208601516001600160681b0316610100026001600160701b031990911660ff90931692909217919091179055604080840151600c80546001600160a01b039092166001600160a01b03199092168217905590516370a0823160e01b81523060048201529192506000916370a082319060240160206040518083038186803b1580156200014d57600080fd5b505afa15801562000162573d6000803e3d6000fd5b505050506040513d601f19601f82011682018060405250810190620001889190620005cc565b9050620001a0816200025460201b62001e1d1760201c565b600d805461ffff196001600160681b03909316600160781b029290921661ffff600160781b03600160e01b03199092169190911760011790555050506001600160a01b0398891660a0525050506040015190941660c052506200062392505050565b600180546001600160a01b038381166001600160a01b0319831681179093556040519116919082907f8be0079c531659141344cd1fd0a4f28419497f9722a3daafe3b4186f6b6457e090600090a35050565b6001600160681b03811115620002a35760405162461bcd60e51b815260206004820152601060248201526f13dd995c999b1bddc81d5a5b9d0c4c0d60821b604482015260640160405180910390fd5b50565b828054620002b490620005e6565b90600052602060002090601f016020900481019282620002d8576000855562000323565b82601f10620002f357805160ff191683800117855562000323565b8280016001018555821562000323579182015b828111156200032357825182559160200191906001019062000306565b506200033192915062000335565b5090565b5b8082111562000331576000815560010162000336565b80516001600160a01b03811681146200036457600080fd5b919050565b634e487b7160e01b600052604160045260246000fd5b604051606081016001600160401b0381118282101715620003a457620003a462000369565b60405290565b604051601f8201601f191681016001600160401b0381118282101715620003d557620003d562000369565b604052919050565b600082601f830112620003ef57600080fd5b81516001600160401b038111156200040b576200040b62000369565b602062000421601f8301601f19168201620003aa565b82815285828487010111156200043657600080fd5b60005b838110156200045657858101830151828201840152820162000439565b83811115620004685760008385840101525b5095945050505050565b6000806000806000808688036101008112156200048e57600080fd5b62000499886200034c565b9650620004a9602089016200034c565b604089015160608a015191975095506001600160401b0380821115620004ce57600080fd5b620004dc8b838c01620003dd565b955060808a0151915080821115620004f357600080fd5b50620005028a828b01620003dd565b9350506060609f19820112156200051857600080fd5b50620005236200037f565b60a088015160ff811681146200053857600080fd5b815260c08801516001600160681b03811681146200055557600080fd5b60208201526200056860e089016200034c565b6040820152809150509295509295509295565b6000816000190483118215151615620005a457634e487b7160e01b600052601160045260246000fd5b500290565b600082620005c757634e487b7160e01b600052601260045260246000fd5b500490565b600060208284031215620005df57600080fd5b5051919050565b600181811c90821680620005fb57607f821691505b602082108114156200061d57634e487b7160e01b600052602260045260246000fd5b50919050565b60805160a05160c051613561620006616000396000818161063801528181610a470152610b06015260006106a901526000611de101526135616000f3fe608060405234801561001057600080fd5b50600436106102465760003560e01c806306fdde031461024b5780630900856314610269578063095ea7b31461027e5780630f68b30b146102a157806318160ddd146102c157806323b872dd146102d35780632728f333146102e6578063313ce5671461039357806333a100ca146103a857806336efd16f146103bb57806339509351146103ce5780633f23bb73146103e157806346904840146103f457806347786d3714610407578063503c70aa1461041a5780636719b2ee146104235780636f31ab341461049a57806370897b23146104a257806370a08231146104b5578063715018a6146104c857806375a0b6dd146104d05780637a9262a2146104e35780637e108d521461053a57806387153eb11461054d578063877887821461056d5780638da5cb5b1461057657806395d89b411461057e57806399530b06146105865780639fcc2d751461058e578063a457c2d7146105e9578063a5a279b5146105fc578063a6f7f5d614610604578063a8c62e761461060d578063a9059cbb14610620578063aabaecd614610633578063ad7a672f1461065a578063b6b55f2514610662578063c9f369c214610675578063ce7c2ac21461067e578063db006a7514610691578063db330143146106a4578063dd62ed3e146106cb578063df1dd826146106de578063e278fe6f146106f1578063e74b981b146106f9578063f2fde38b1461070c578063f656ba511461071f578063f756fa2114610740578063fb8dc75e14610748578063fe56e2321461075b575b600080fd5b61025361076e565b6040516102609190613016565b60405180910390f35b61027c610277366004613049565b610800565b005b61029161028c36600461307e565b6109ad565b6040519015158152602001610260565b6034546102b4906001600160a01b031681565b60405161026091906130a8565b6004545b604051908152602001610260565b6102916102e13660046130bc565b6109c7565b600d54600e54600f546010546011546103389461ffff8116946001600160681b03620100008304811695600160781b909304169390926001600160801b0380841693600160801b900416919060ff1688565b6040805161ffff9990991689526001600160681b0397881660208a0152959096169487019490945260608601929092526001600160801b0390811660808601521660a084015260c0830152151560e082015261010001610260565b600b5460405160ff9091168152602001610260565b61027c6103b63660046130f8565b6109ed565b61027c6103c9366004613113565b610bce565b6102916103dc36600461307e565b610c80565b6102c56103ef3660046130f8565b610cbf565b6012546102b4906001600160a01b031681565b61027c610415366004613049565b610d0c565b6102c560355481565b6104696104313660046130f8565b60086020526000908152604090205461ffff8116906201000081046001600160681b031690600160781b90046001600160801b031683565b6040805161ffff90941684526001600160681b0390921660208401526001600160801b031690820152606001610260565b61027c610df7565b61027c6104b0366004613049565b610e33565b6102c56104c33660046130f8565b610ef8565b61027c610f13565b61027c6104de36600461313f565b610f4e565b6105186104f13660046130f8565b600a6020526000908152604090205461ffff8116906201000090046001600160801b031682565b6040805161ffff90931683526001600160801b03909116602083015201610260565b61027c610548366004613049565b610fc1565b6102c561055b366004613049565b60096020526000908152604090205481565b6102c560135481565b6102b46111e0565b6102536111ef565b6102c56111fe565b600b54600c546105b99160ff8116916101009091046001600160681b0316906001600160a01b031683565b6040805160ff90941684526001600160681b0390921660208401526001600160a01b031690820152606001610260565b6102916105f736600461307e565b611233565b61027c6112d0565b6102c560145481565b6033546102b4906001600160a01b031681565b61029161062e36600461307e565b61141b565b6102b47f000000000000000000000000000000000000000000000000000000000000000081565b6102c5611429565b61027c610670366004613049565b6114d3565b6102c560365481565b6102c561068c3660046130f8565b611542565b61027c61069f366004613049565b61155f565b6102b47f000000000000000000000000000000000000000000000000000000000000000081565b6102c56106d9366004613161565b6115af565b61027c6106ec366004613049565b6115da565b61027c6116f3565b61027c6107073660046130f8565b611890565b61027c61071a3660046130f8565b611983565b61073261072d3660046130f8565b611a23565b60405161026092919061318b565b61027c611add565b61027c6107563660046130f8565b611ccf565b61027c610769366004613049565b611d20565b60606005805461077d90613199565b80601f01602080910402602001604051908101604052809291908181526020018280546107a990613199565b80156107f65780601f106107cb576101008083540402835291602001916107f6565b820191906000526020600020905b8154815290600101906020018083116107d957829003601f168201915b5050505050905090565b336108096111e0565b6001600160a01b0316146108385760405162461bcd60e51b815260040161082f906131d4565b60405180910390fd5b60115460ff161561087f5760405162461bcd60e51b8152602060048201526011602482015270726f756e6420696e2070726f677265737360781b604482015260640161082f565b60105442116108b55760405162461bcd60e51b815260206004820152600260248201526110d160f21b604482015260640161082f565b60335460405163ae74fc4d60e01b8152600481018390526001600160a01b039091169063ae74fc4d90602401600060405180830381600087803b1580156108fb57600080fd5b505af115801561090f573d6000803e3d6000fd5b50505050600080610921603554611e67565b600d80546001600160681b038416620100000262010000600160781b031982168117909255600e8490556011805460ff1916600117905560358390556040519395509193507f2f93a032ac7d7eee7307fc88610b447c5f48ae62c15f146b43168c282fa9490a926109a09261ffff928316921691909117908590613209565b60405180910390a1505050565b6000336109bb818585611f56565b60019150505b92915050565b6000336109d585828561207b565b6109e08585856120f5565b60019150505b9392505050565b336109f66111e0565b6001600160a01b031614610a1c5760405162461bcd60e51b815260040161082f906131d4565b6033546001600160a01b031615610ad75760335460405163095ea7b360e01b81526001600160a01b037f000000000000000000000000000000000000000000000000000000000000000081169263095ea7b392610a83929190911690600090600401613226565b602060405180830381600087803b158015610a9d57600080fd5b505af1158015610ab1573d6000803e3d6000fd5b505050506040513d601f19601f82011682018060405250810190610ad5919061323f565b505b603380546001600160a01b0319166001600160a01b038381169190911790915560405163095ea7b360e01b81527f00000000000000000000000000000000000000000000000000000000000000009091169063095ea7b390610b4190849060001990600401613226565b602060405180830381600087803b158015610b5b57600080fd5b505af1158015610b6f573d6000803e3d6000fd5b505050506040513d601f19601f82011682018060405250810190610b93919061323f565b507f4da9c22c924692646a21cf1f423781ae3285198dc22e8a6912835d3272b90b3c81604051610bc391906130a8565b60405180910390a150565b60026000541415610bf15760405162461bcd60e51b815260040161082f90613261565b600260005581610c135760405162461bcd60e51b815260040161082f90613298565b6001600160a01b038116610c555760405162461bcd60e51b815260206004820152600960248201526810b1b932b234ba37b960b91b604482015260640161082f565b610c5f82826122b1565b600c54610c77906001600160a01b03163330856124e3565b50506001600055565b3360008181526003602090815260408083206001600160a01b03871684529091528120549091906109bb9082908690610cba9087906132cf565b611f56565b600b5460009060ff1681610cef610cd560045490565b610cdd611429565b600f546001600160801b03168561254e565b9050610d04610cfd85611542565b8284612595565b949350505050565b33610d156111e0565b6001600160a01b031614610d3b5760405162461bcd60e51b815260040161082f906131d4565b60008111610d755760405162461bcd60e51b81526020600482015260076024820152660216e65774361760cc1b604482015260640161082f565b600b54604080516101009092046001600160681b031682526020820183905233908201527f0e45875b8819e52adac9df2787285bc765235018d84ab492668edfcf944628c49060600160405180910390a1610dcf81611e1d565b600b80546001600160681b0390921661010002610100600160701b0319909216919091179055565b60026000541415610e1a5760405162461bcd60e51b815260040161082f90613261565b60026000908155610e2c9060016125d5565b6001600055565b33610e3c6111e0565b6001600160a01b031614610e625760405162461bcd60e51b815260040161082f906131d4565b610e70620f424060646132e7565b8110610eb85760405162461bcd60e51b8152602060048201526017602482015276496e76616c696420706572666f726d616e63652066656560481b604482015260640161082f565b7f24867dfb6fcb9970a07be21024956524abe7a1837faa903ff0e99aaa40cf893e60135482604051610eeb92919061318b565b60405180910390a1601355565b6001600160a01b031660009081526002602052604090205490565b33610f1c6111e0565b6001600160a01b031614610f425760405162461bcd60e51b815260040161082f906131d4565b610f4c60006127a1565b565b603354603454604051631c20ea4160e21b815260048101859052602481018490526001600160a01b039182166044820152911690637083a90490606401600060405180830381600087803b158015610fa557600080fd5b505af1158015610fb9573d6000803e3d6000fd5b505050505050565b60026000541415610fe45760405162461bcd60e51b815260040161082f90613261565b6002600055806110065760405162461bcd60e51b815260040161082f90613306565b336000908152600860205260409020546201000090046001600160681b0316151580611050575033600090815260086020526040902054600160781b90046001600160801b031615155b1561106157611061600060016125d5565b600d54336000818152600a6020526040908190208054915161ffff948516949193919092168414917f0c53c82ad07e2d592d88ece3b066777dd60f1118e2a081b380efc4358f0d9e2a906110b8908790879061318b565b60405180910390a281546201000090046001600160801b0316600082156110ea576110e386836132cf565b905061114d565b811561112c5760405162461bcd60e51b81526020600482015260116024820152704578697374696e6720776974686472617760781b604482015260640161082f565b50336000908152600a60205260409020805461ffff191661ffff8616179055845b611156816127f3565b336000908152600a6020526040812080546001600160801b03808516620100000262010000600160901b031990921691909117909155600f546111a2918991600160801b9004166132cf565b90506111ad816127f3565b600f80546001600160801b03808416600160801b0291161790556111d23330896120f5565b505060016000555050505050565b6001546001600160a01b031690565b60606006805461077d90613199565b600061122e61120c60045490565b611214611429565b600f54600b546001600160801b039091169060ff1661254e565b905090565b3360008181526003602090815260408083206001600160a01b0387168452909152812054909190838110156112b85760405162461bcd60e51b815260206004820152602560248201527f45524332303a2064656372656173656420616c6c6f77616e63652062656c6f77604482015264207a65726f60d81b606482015260840161082f565b6112c58286868403611f56565b506001949350505050565b336112d96111e0565b6001600160a01b0316146112ff5760405162461bcd60e51b815260040161082f906131d4565b60115460ff166113215760405162461bcd60e51b815260040161082f9061332a565b600d80546000600e5562010000600160e01b03198116620100009091046001600160681b0316600160781b810262010000600160781b0319169190911790915561136e62015180426132cf565b6010556011805460ff19169055603354603454604051637dd0db1b60e01b81526001600160a01b0392831692637dd0db1b926113af929116906004016130a8565b600060405180830381600087803b1580156113c957600080fd5b505af11580156113dd573d6000803e3d6000fd5b5050600d546040517f72a38b5b2905463b2dd317993b07770e582b99731092f75150f433b6a9f9c89e9350610bc3925061ffff909116908490613209565b6000336109bb8185856120f5565b600c546040516370a0823160e01b81526000916001600160a01b0316906370a082319061145a9030906004016130a8565b60206040518083038186803b15801561147257600080fd5b505afa158015611486573d6000803e3d6000fd5b505050506040513d601f19601f820116820180604052508101906114aa9190613350565b600e54600d546114c991906201000090046001600160681b0316613369565b61122e91906132cf565b600260005414156114f65760405162461bcd60e51b815260040161082f90613261565b6002600055806115185760405162461bcd60e51b815260040161082f90613298565b61152281336122b1565b600c5461153a906001600160a01b03163330846124e3565b506001600055565b600080600061155084611a23565b9092509050610d0481836132cf565b600260005414156115825760405162461bcd60e51b815260040161082f90613261565b6002600055806115a45760405162461bcd60e51b815260040161082f90613306565b61153a8160006125d5565b6001600160a01b03918216600090815260036020908152604080832093909416825291909152205490565b60115460ff166115fc5760405162461bcd60e51b815260040161082f9061332a565b603354603454604051635461bce160e11b8152600481018490526001600160a01b0391821660248201526000928392839291169063a8c379c290604401606060405180830381600087803b15801561165357600080fd5b505af1158015611667573d6000803e3d6000fd5b505050506040513d601f19601f8201168201806040525081019061168b9190613380565b92509250925080600d600101546116a29190613369565b600e556040805133815260208101859052908101839052606081018290527f150edd20b748bc680273d4bc59d5659c3229edf2f102c013595b9b3238e158869060800160405180910390a150505050565b603354604080516301e269eb60e11b8152905142926001600160a01b0316916303c4d3d69160048083019260209291908290030181600087803b15801561173957600080fd5b505af115801561174d573d6000803e3d6000fd5b505050506040513d601f19601f820116820180604052508101906117719190613350565b106117ce5760405162461bcd60e51b815260206004820152602760248201527f63616e6e6f7420636c6f736520726f756e6420696620626f617264206e6f7420604482015266195e1c1a5c995960ca1b606482015260840161082f565b60115460ff166117f05760405162461bcd60e51b815260040161082f9061332a565b600d80546000600e5562010000600160e01b03198116620100009091046001600160681b0316600160781b810262010000600160781b0319169190911790915561183d62015180426132cf565b6010556011805460ff19169055603354604080516341e752a160e11b815290516001600160a01b03909216916383cea5429160048181019260009290919082900301818387803b1580156113c957600080fd5b336118996111e0565b6001600160a01b0316146118bf5760405162461bcd60e51b815260040161082f906131d4565b6001600160a01b0381166119085760405162461bcd60e51b815260206004820152601060248201526f085b995dd19959549958da5c1a595b9d60821b604482015260640161082f565b6012546001600160a01b03828116911614156119615760405162461bcd60e51b8152602060048201526018602482015277135d5cdd081899481b995dc8199959549958da5c1a595b9d60421b604482015260640161082f565b601280546001600160a01b0319166001600160a01b0392909216919091179055565b3361198c6111e0565b6001600160a01b0316146119b25760405162461bcd60e51b815260040161082f906131d4565b6001600160a01b038116611a175760405162461bcd60e51b815260206004820152602660248201527f4f776e61626c653a206e6577206f776e657220697320746865207a65726f206160448201526564647265737360d01b606482015260840161082f565b611a20816127a1565b50565b6001600160a01b03811660009081526008602090815260408083208151606081018352905461ffff81168083526201000082046001600160681b031694830194909452600160781b90046001600160801b0316918101919091528291611a9757611a8c84610ef8565b946000945092505050565b600d54815161ffff908116600090815260096020526040812054600b549193611ac89386939116919060ff1661283d565b9050611ad385610ef8565b9590945092505050565b60026000541415611b005760405162461bcd60e51b815260040161082f90613261565b60026000908155338152600a6020526040902080546001600160801b03620100008204169061ffff1681611b665760405162461bcd60e51b815260206004820152600d60248201526c139bdd081a5b9a5d1a585d1959609a1b604482015260640161082f565b600d5461ffff168110611baf5760405162461bcd60e51b8152602060048201526011602482015270526f756e6420696e2070726f677265737360781b604482015260640161082f565b336000908152600a60205260409020805462010000600160901b0319169055600f54611bec908390600160801b90046001600160801b0316613369565b600f80546001600160801b03928316600160801b029216919091179055600081815260096020526040812054600b54611c2991859160ff16612595565b9050336001600160a01b03167ff279e6a1f5e320cca91135676d9cb6e44ca8a08c0b88342bcdb1144f6511b5688285604051611c6692919061318b565b60405180910390a2611c7830846128ae565b60008111611cba5760405162461bcd60e51b815260206004820152600f60248201526e085dda5d1a191c985dd05b5bdd5b9d608a1b604482015260640161082f565b611cc433826129e7565b505060016000555050565b33611cd86111e0565b6001600160a01b031614611cfe5760405162461bcd60e51b815260040161082f906131d4565b603480546001600160a01b0319166001600160a01b0392909216919091179055565b33611d296111e0565b6001600160a01b031614611d4f5760405162461bcd60e51b815260040161082f906131d4565b611d5d620f424060646132e7565b8110611da45760405162461bcd60e51b8152602060048201526016602482015275496e76616c6964206d616e6167656d656e742066656560501b604482015260640161082f565b7f4e874b007ab14f7e263baefd44951834c8266f4f224d1092e49e9c254354cc5460145482604051611dd792919061318b565b60405180910390a17f0000000000000000000000000000000000000000000000000000000000000000611e0d620f4240836132e7565b611e1791906133ae565b60145550565b6001600160681b03811115611a205760405162461bcd60e51b815260206004820152601060248201526f13dd995c999b1bddc81d5a5b9d0c4c0d60821b604482015260640161082f565b600080600080600080611eb0611e7c60045490565b600c54600b54600f546001600160a01b039092169160ff909116906001600160801b0380821691600160801b9004166129fe565b600d5461ffff166000818152600960205260408120849055949850929650909450925090888511611ee2576000611eec565b611eec8986613369565b9050611f00611efb82886132cf565b612aeb565b611f0a9087613369565b600f80546001600160801b03191690559550611f278260016132cf565b600d805461ffff191661ffff92909216919091179055611f473084612b81565b50939792965091945050505050565b6001600160a01b038316611fb85760405162461bcd60e51b8152602060048201526024808201527f45524332303a20617070726f76652066726f6d20746865207a65726f206164646044820152637265737360e01b606482015260840161082f565b6001600160a01b0382166120195760405162461bcd60e51b815260206004820152602260248201527f45524332303a20617070726f766520746f20746865207a65726f206164647265604482015261737360f01b606482015260840161082f565b6001600160a01b0383811660008181526003602090815260408083209487168084529482529182902085905590518481527f8c5be1e5ebec7d5bd14f71427d1e84f3dd0314c0f7b2291e5b200ac8c7c3b92591015b60405180910390a3505050565b600061208784846115af565b905060001981146120ef57818110156120e25760405162461bcd60e51b815260206004820152601d60248201527f45524332303a20696e73756666696369656e7420616c6c6f77616e6365000000604482015260640161082f565b6120ef8484848403611f56565b50505050565b6001600160a01b0383166121595760405162461bcd60e51b815260206004820152602560248201527f45524332303a207472616e736665722066726f6d20746865207a65726f206164604482015264647265737360d81b606482015260840161082f565b6001600160a01b0382166121bb5760405162461bcd60e51b815260206004820152602360248201527f45524332303a207472616e7366657220746f20746865207a65726f206164647260448201526265737360e81b606482015260840161082f565b6001600160a01b038316600090815260026020526040902054818110156122335760405162461bcd60e51b815260206004820152602660248201527f45524332303a207472616e7366657220616d6f756e7420657863656564732062604482015265616c616e636560d01b606482015260840161082f565b6001600160a01b0380851660009081526002602052604080822085850390559185168152908120805484929061226a9084906132cf565b92505081905550826001600160a01b0316846001600160a01b031660008051602061350c833981519152846040516122a491815260200190565b60405180910390a36120ef565b600d5461ffff166000836122c3611429565b6122cd91906132cf565b600b5490915061010090046001600160681b031681111561231d5760405162461bcd60e51b815260206004820152600a6024820152690457863656564206361760b41b604482015260640161082f565b826001600160a01b03167f90890809c654f11d6e72a28fa60149770a0d11ec6c92319d6ceb2bb0a4ea1a15858460405161235892919061318b565b60405180910390a26001600160a01b03831660009081526008602090815260408083208151606081018352905461ffff81168083526201000082046001600160681b031683860152600160781b9091046001600160801b03168284015284526009909252822054600b549192916123d691849187919060ff1661283d565b8251909150869061ffff168514156124075760008784602001516001600160681b031661240391906132cf565b9150505b61241081611e1d565b6040805160608101825261ffff80881682526001600160681b0380851660208085019182526001600160801b038089168688019081526001600160a01b038e166000908152600890935296822095518654935197518216600160781b02600160781b600160f81b03199890951662010000026001600160781b0319909416951694909417919091179490941617909155600f546124af918a91166132cf565b90506124ba816127f3565b600f80546001600160801b0319166001600160801b039290921691909117905550505050505050565b6040516001600160a01b03808516602483015283166044820152606481018290526120ef9085906323b872dd60e01b906084015b60408051601f198184030181529190526020810180516001600160e01b03166001600160e01b031990931692909217909152612c4e565b60008061255c83600a6134b4565b90506000861161256c578061258b565b856125778587613369565b61258190836132e7565b61258b91906133ae565b9695505050505050565b60008083116125b65760405162461bcd60e51b815260040161082f906134c0565b6125c182600a6134b4565b6125cb84866132e7565b610d0491906133ae565b3360009081526008602090815260408083208151606081018352905461ffff8082168084526201000083046001600160681b031684870152600160781b9092046001600160801b031683850152600d54918652600990945291842054600b549194929093169261264b918591859160ff1661283d565b905083612658578461265a565b805b945084612668575050505050565b808511156126ac5760405162461bcd60e51b81526020600482015260116024820152704578636565647320617661696c61626c6560781b604482015260640161082f565b825161ffff1682116126c25782602001516126c5565b60005b33600090815260086020526040902080546001600160681b0392909216620100000262010000600160781b0319909216919091179055612704856127f3565b61270e8582613369565b336000818152600860205260409081902080546001600160801b0394909416600160781b02600160781b600160f81b0319909416939093179092558451915190917fe5b754fb1abb7f01b499791d0b820ae3b6af3424ac1c59768edb53f4ec31a929916127879189825261ffff16602082015260400190565b60405180910390a261279a3033876120f5565b5050505050565b600180546001600160a01b038381166001600160a01b0319831681179093556040519116919082907f8be0079c531659141344cd1fd0a4f28419497f9722a3daafe3b4186f6b6457e090600090a35050565b6001600160801b03811115611a205760405162461bcd60e51b815260206004820152601060248201526f09eeccae4ccd8deee40ead2dce86264760831b604482015260640161082f565b835160009061ffff16158015906128585750845161ffff1684115b1561289a57600061287786602001516001600160681b03168585612d20565b90508086604001516001600160801b031661289291906132cf565b915050610d04565b50505050604001516001600160801b031690565b6001600160a01b03821661290e5760405162461bcd60e51b815260206004820152602160248201527f45524332303a206275726e2066726f6d20746865207a65726f206164647265736044820152607360f81b606482015260840161082f565b6001600160a01b038216600090815260026020526040902054818110156129825760405162461bcd60e51b815260206004820152602260248201527f45524332303a206275726e20616d6f756e7420657863656564732062616c616e604482015261636560f01b606482015260840161082f565b6001600160a01b03831660009081526002602052604081208383039055600480548492906129b1908490613369565b90915550506040518281526000906001600160a01b0385169060008051602061350c8339815191529060200161206e565b505050565b600c546001600160a01b03166129e2818484612d57565b6000806000806000886001600160a01b03166370a08231306040518263ffffffff1660e01b8152600401612a3291906130a8565b60206040518083038186803b158015612a4a57600080fd5b505afa158015612a5e573d6000803e3d6000fd5b505050506040513d601f19601f82011682018060405250810190612a829190613350565b9050612a908a82898b61254e565b92506000612a9f88858b612d20565b90506000612aad8c83612d76565b90506000808211612abf576000612aca565b612aca89878d612595565b9050612ad68482612d82565b97509550909250505095509550955095915050565b6000806000612b01600d85601354601454612d8e565b925050915060008111156109e657601254612b25906001600160a01b0316826129e7565b601254600d54604080518581526020810185905261ffff90921682820152516001600160a01b03909216917f0a242f7ecaf711036ca770774ceffae28e60ef042ac113ddd187f2631db0c0069181900360600190a29392505050565b6001600160a01b038216612bd75760405162461bcd60e51b815260206004820152601f60248201527f45524332303a206d696e7420746f20746865207a65726f206164647265737300604482015260640161082f565b8060046000828254612be991906132cf565b90915550506001600160a01b03821660009081526002602052604081208054839290612c169084906132cf565b90915550506040518181526001600160a01b0383169060009060008051602061350c8339815191529060200160405180910390a35050565b6000612ca3826040518060400160405280602081526020017f5361666545524332303a206c6f772d6c6576656c2063616c6c206661696c6564815250856001600160a01b0316612e599092919063ffffffff16565b8051909150156129e25780806020019051810190612cc1919061323f565b6129e25760405162461bcd60e51b815260206004820152602a60248201527f5361666545524332303a204552433230206f7065726174696f6e20646964206e6044820152691bdd081cdd58d8d9595960b21b606482015260840161082f565b6000808311612d415760405162461bcd60e51b815260040161082f906134c0565b82612d4d83600a6134b4565b6125cb90866132e7565b6129e28363a9059cbb60e01b8484604051602401612517929190613226565b60006109e682846132cf565b60006109e68284613369565b8354600285015460009182918291600160781b90046001600160681b0316908290612dc39089906001600160801b0316612d82565b9050600080600084841115612e475760008a11612de1576000612e0c565b612e0c612df2620f424060646132e7565b612e068c612e00888a612d82565b90612e68565b90612e74565b925060008911612e1d576000612e38565b612e38612e2e620f424060646132e7565b612e06868c612e68565b9150612e448383612d76565b90505b919b909a509098509650505050505050565b6060610d048484600085612e80565b60006109e682846132e7565b60006109e682846133ae565b606082471015612ee15760405162461bcd60e51b815260206004820152602660248201527f416464726573733a20696e73756666696369656e742062616c616e636520666f6044820152651c8818d85b1b60d21b606482015260840161082f565b6001600160a01b0385163b612f385760405162461bcd60e51b815260206004820152601d60248201527f416464726573733a2063616c6c20746f206e6f6e2d636f6e7472616374000000604482015260640161082f565b600080866001600160a01b03168587604051612f5491906134ef565b60006040518083038185875af1925050503d8060008114612f91576040519150601f19603f3d011682016040523d82523d6000602084013e612f96565b606091505b5091509150612fa6828286612fb1565b979650505050505050565b60608315612fc05750816109e6565b825115612fd05782518084602001fd5b8160405162461bcd60e51b815260040161082f9190613016565b60005b83811015613005578181015183820152602001612fed565b838111156120ef5750506000910152565b6020815260008251806020840152613035816040850160208701612fea565b601f01601f19169190910160400192915050565b60006020828403121561305b57600080fd5b5035919050565b80356001600160a01b038116811461307957600080fd5b919050565b6000806040838503121561309157600080fd5b61309a83613062565b946020939093013593505050565b6001600160a01b0391909116815260200190565b6000806000606084860312156130d157600080fd5b6130da84613062565b92506130e860208501613062565b9150604084013590509250925092565b60006020828403121561310a57600080fd5b6109e682613062565b6000806040838503121561312657600080fd5b8235915061313660208401613062565b90509250929050565b6000806040838503121561315257600080fd5b50508035926020909101359150565b6000806040838503121561317457600080fd5b61317d83613062565b915061313660208401613062565b918252602082015260400190565b600181811c908216806131ad57607f821691505b602082108114156131ce57634e487b7160e01b600052602260045260246000fd5b50919050565b6020808252818101527f4f776e61626c653a2063616c6c6572206973206e6f7420746865206f776e6572604082015260600190565b61ffff9290921682526001600160681b0316602082015260400190565b6001600160a01b03929092168252602082015260400190565b60006020828403121561325157600080fd5b815180151581146109e657600080fd5b6020808252601f908201527f5265656e7472616e637947756172643a207265656e7472616e742063616c6c00604082015260600190565b60208082526007908201526608585b5bdd5b9d60ca1b604082015260600190565b634e487b7160e01b600052601160045260246000fd5b600082198211156132e2576132e26132b9565b500190565b6000816000190483118215151615613301576133016132b9565b500290565b6020808252600a9082015269216e756d53686172657360b01b604082015260600190565b6020808252600c908201526b1c9bdd5b990818db1bdcd95960a21b604082015260600190565b60006020828403121561336257600080fd5b5051919050565b60008282101561337b5761337b6132b9565b500390565b60008060006060848603121561339557600080fd5b8351925060208401519150604084015190509250925092565b6000826133cb57634e487b7160e01b600052601260045260246000fd5b500490565b600181815b8085111561340b5781600019048211156133f1576133f16132b9565b808516156133fe57918102915b93841c93908002906133d5565b509250929050565b600082613422575060016109c1565b8161342f575060006109c1565b8160018114613445576002811461344f5761346b565b60019150506109c1565b60ff841115613460576134606132b9565b50506001821b6109c1565b5060208310610133831016604e8410600b841016171561348e575081810a6109c1565b61349883836133d0565b80600019048211156134ac576134ac6132b9565b029392505050565b60006109e68383613413565b602080825260159082015274496e76616c6964206173736574506572536861726560581b604082015260600190565b60008251613501818460208701612fea565b919091019291505056feddf252ad1be2c89b69c2b068fc378daa952ba7f163c4a11628f55a4df523b3efa264697066735822122087d998a912b0b6173844a11c13db7a74467d938d1e635fd85cb21cfb7cdac5b564736f6c63430008090033",
  "devdoc": {
    "kind": "dev",
    "methods": {
      "accountVaultBalance(address)": {
        "params": {
          "account": "is the address to lookup balance for"
        },
        "returns": {
          "_0": "the amount of `asset` custodied by the vault for the user"
        }
      },
      "allowance(address,address)": {
        "details": "See {IERC20-allowance}."
      },
      "approve(address,uint256)": {
        "details": "See {IERC20-approve}. NOTE: If `amount` is the maximum `uint256`, the allowance is not updated on `transferFrom`. This is semantically equivalent to an infinite approval. Requirements: - `spender` cannot be the zero address."
      },
      "balanceOf(address)": {
        "details": "See {IERC20-balanceOf}."
      },
      "closeRound()": {
        "details": "close the current round, enable user to deposit for the next round"
      },
      "decreaseAllowance(address,uint256)": {
        "details": "Atomically decreases the allowance granted to `spender` by the caller. This is an alternative to {approve} that can be used as a mitigation for problems described in {IERC20-approve}. Emits an {Approval} event indicating the updated allowance. Requirements: - `spender` cannot be the zero address. - `spender` must have allowance for the caller of at least `subtractedValue`."
      },
      "deposit(uint256)": {
        "params": {
          "amount": "is the amount of `asset` to deposit"
        }
      },
      "depositFor(uint256,address)": {
        "params": {
          "amount": "is the amount of `asset` to deposit",
          "creditor": "is the address that can claim/withdraw deposited amount"
        }
      },
      "emergencyCloseRound()": {
        "details": "Close the current round, enable user to deposit for the next round"
      },
      "increaseAllowance(address,uint256)": {
        "details": "Atomically increases the allowance granted to `spender` by the caller. This is an alternative to {approve} that can be used as a mitigation for problems described in {IERC20-approve}. Emits an {Approval} event indicating the updated allowance. Requirements: - `spender` cannot be the zero address."
      },
      "initiateWithdraw(uint256)": {
        "params": {
          "numShares": "is the number of shares to withdraw"
        }
      },
      "name()": {
        "details": "Returns the name of the token."
      },
      "owner()": {
        "details": "Returns the address of the current owner."
      },
      "redeem(uint256)": {
        "params": {
          "numShares": "is the number of shares to redeem"
        }
      },
      "reducePosition(uint256,uint256)": {
        "details": "anyone close part of the position with premium made by the strategy if a position is dangerous",
        "params": {
          "positionId": "the positiion to close"
        }
      },
      "renounceOwnership()": {
        "details": "Leaves the contract without owner. It will not be possible to call `onlyOwner` functions anymore. Can only be called by the current owner. NOTE: Renouncing ownership will leave the contract without an owner, thereby removing any functionality that is only available to the owner."
      },
      "setCap(uint256)": {
        "params": {
          "newCap": "is the new cap for deposits"
        }
      },
      "setFeeRecipient(address)": {
        "params": {
          "newFeeRecipient": "is the address of the new fee recipient"
        }
      },
      "setLyraRewardRecipient(address)": {
        "params": {
          "recipient": "recipient address"
        }
      },
      "setManagementFee(uint256)": {
        "params": {
          "newManagementFee": "is the management fee (6 decimals). ex: 2 * 10 ** 6 = 2%"
        }
      },
      "setPerformanceFee(uint256)": {
        "params": {
          "newPerformanceFee": "is the performance fee (6 decimals). ex: 20 * 10 ** 6 = 20%"
        }
      },
      "setStrategy(address)": {
        "details": "set strategy contract. This function can only be called by owner.",
        "params": {
          "_strategy": "new strategy contract address"
        }
      },
      "shareBalances(address)": {
        "params": {
          "account": "is the account to lookup share balance for"
        },
        "returns": {
          "heldByAccount": "is the shares held by account",
          "heldByVault": "is the shares held on the vault (unredeemedShares)"
        }
      },
      "shares(address)": {
        "params": {
          "account": "is the account to lookup share balance for"
        },
        "returns": {
          "_0": "the share balance"
        }
      },
      "startNextRound(uint256)": {
        "params": {
          "boardId": "board id (asset + expiry) for next round."
        }
      },
      "symbol()": {
        "details": "Returns the symbol of the token, usually a shorter version of the name."
      },
      "totalBalance()": {
        "returns": {
          "_0": "total balance of the vault, including the amounts locked in third party protocols"
        }
      },
      "totalSupply()": {
        "details": "See {IERC20-totalSupply}."
      },
      "trade(uint256)": {
        "details": "anyone can trigger a trade",
        "params": {
          "strikeId": "the strike id to sell"
        }
      },
      "transfer(address,uint256)": {
        "details": "See {IERC20-transfer}. Requirements: - `to` cannot be the zero address. - the caller must have a balance of at least `amount`."
      },
      "transferFrom(address,address,uint256)": {
        "details": "See {IERC20-transferFrom}. Emits an {Approval} event indicating the updated allowance. This is not required by the EIP. See the note at the beginning of {ERC20}. NOTE: Does not update the allowance if the current allowance is the maximum `uint256`. Requirements: - `from` and `to` cannot be the zero address. - `from` must have a balance of at least `amount`. - the caller must have allowance for ``from``'s tokens of at least `amount`."
      },
      "transferOwnership(address)": {
        "details": "Transfers ownership of the contract to a new account (`newOwner`). Can only be called by the current owner."
      }
    },
    "version": 1
  },
  "userdoc": {
    "kind": "user",
    "methods": {
      "accountVaultBalance(address)": {
        "notice": "Returns the asset balance held on the vault for the account"
      },
      "completeWithdraw()": {
        "notice": "Completes a scheduled withdrawal from a past round. Uses finalized pps for the round"
      },
      "decimals()": {
        "notice": "Returns the token decimals"
      },
      "deposit(uint256)": {
        "notice": "Deposits the `asset` from msg.sender."
      },
      "depositFor(uint256,address)": {
        "notice": "Deposits the `asset` from msg.sender added to `creditor`'s deposit.Used for vault -> vault deposits on the user's behalf"
      },
      "depositReceipts(address)": {
        "notice": "Stores the user's pending deposit for the round"
      },
      "feeRecipient()": {
        "notice": "Fee recipient for the performance and management fees"
      },
      "initiateWithdraw(uint256)": {
        "notice": "Initiates a withdrawal that can be processed once the round completes"
      },
      "managementFee()": {
        "notice": "Management fee charged on entire AUM in rollToNextOption. Only charged when there is no loss."
      },
      "maxRedeem()": {
        "notice": "Redeems the entire unredeemedShares balance that is owed to the account"
      },
      "performanceFee()": {
        "notice": "Performance fee charged on premiums earned in rollToNextOption. Only charged when there is no loss."
      },
      "pricePerShare()": {
        "notice": "The price of a unit of share denominated in the `asset`"
      },
      "redeem(uint256)": {
        "notice": "Redeems shares that are owed to the account"
      },
      "roundPricePerShare(uint256)": {
        "notice": "On every round's close, the pricePerShare value of an rTHETA token is stored This is used to determine the number of shares to be returned to a user with their DepositReceipt.depositAmount"
      },
      "setCap(uint256)": {
        "notice": "Sets a new cap for deposits"
      },
      "setFeeRecipient(address)": {
        "notice": "Sets the new fee recipient"
      },
      "setLyraRewardRecipient(address)": {
        "notice": "set set new address to receive Lyra trading reward on behalf of the vault"
      },
      "setManagementFee(uint256)": {
        "notice": "Sets the management fee for the vault"
      },
      "setPerformanceFee(uint256)": {
        "notice": "Sets the performance fee for the vault"
      },
      "shareBalances(address)": {
        "notice": "Getter for returning the account's share balance split between account and vault holdings"
      },
      "shares(address)": {
        "notice": "Getter for returning the account's share balance including unredeemed shares"
      },
      "startNextRound(uint256)": {
        "notice": "start the next round"
      },
      "totalBalance()": {
        "notice": "Returns the vault's total balance, including the amounts locked into a short position"
      },
      "vaultParams()": {
        "notice": "Vault's parameters like cap, decimals"
      },
      "vaultState()": {
        "notice": "Vault's lifecycle state like round and locked amounts"
      },
      "withdrawals(address)": {
        "notice": "Stores pending user withdrawals"
      }
    },
    "notice": "LyraVault help users run option-selling strategies on Lyra AMM.",
    "version": 1
  },
  "storageLayout": {
    "storage": [
      {
        "astId": 33262,
        "contract": "contracts/core/LyraVault.sol:LyraVault",
        "label": "_status",
        "offset": 0,
        "slot": "0",
        "type": "t_uint256"
      },
      {
        "astId": 33080,
        "contract": "contracts/core/LyraVault.sol:LyraVault",
        "label": "_owner",
        "offset": 0,
        "slot": "1",
        "type": "t_address"
      },
      {
        "astId": 33307,
        "contract": "contracts/core/LyraVault.sol:LyraVault",
        "label": "_balances",
        "offset": 0,
        "slot": "2",
        "type": "t_mapping(t_address,t_uint256)"
      },
      {
        "astId": 33313,
        "contract": "contracts/core/LyraVault.sol:LyraVault",
        "label": "_allowances",
        "offset": 0,
        "slot": "3",
        "type": "t_mapping(t_address,t_mapping(t_address,t_uint256))"
      },
      {
        "astId": 33315,
        "contract": "contracts/core/LyraVault.sol:LyraVault",
        "label": "_totalSupply",
        "offset": 0,
        "slot": "4",
        "type": "t_uint256"
      },
      {
        "astId": 33317,
        "contract": "contracts/core/LyraVault.sol:LyraVault",
        "label": "_name",
        "offset": 0,
        "slot": "5",
        "type": "t_string_storage"
      },
      {
        "astId": 33319,
        "contract": "contracts/core/LyraVault.sol:LyraVault",
        "label": "_symbol",
        "offset": 0,
        "slot": "6",
        "type": "t_string_storage"
      },
      {
        "astId": 33184,
        "contract": "contracts/core/LyraVault.sol:LyraVault",
        "label": "_initialized",
        "offset": 0,
        "slot": "7",
        "type": "t_bool"
      },
      {
        "astId": 33187,
        "contract": "contracts/core/LyraVault.sol:LyraVault",
        "label": "_initializing",
        "offset": 1,
        "slot": "7",
        "type": "t_bool"
      },
      {
        "astId": 34877,
        "contract": "contracts/core/LyraVault.sol:LyraVault",
        "label": "depositReceipts",
        "offset": 0,
        "slot": "8",
        "type": "t_mapping(t_address,t_struct(DepositReceipt)37026_storage)"
      },
      {
        "astId": 34882,
        "contract": "contracts/core/LyraVault.sol:LyraVault",
        "label": "roundPricePerShare",
        "offset": 0,
        "slot": "9",
        "type": "t_mapping(t_uint256,t_uint256)"
      },
      {
        "astId": 34888,
        "contract": "contracts/core/LyraVault.sol:LyraVault",
        "label": "withdrawals",
        "offset": 0,
        "slot": "10",
        "type": "t_mapping(t_address,t_struct(Withdrawal)37031_storage)"
      },
      {
        "astId": 34892,
        "contract": "contracts/core/LyraVault.sol:LyraVault",
        "label": "vaultParams",
        "offset": 0,
        "slot": "11",
        "type": "t_struct(VaultParams)37002_storage"
      },
      {
        "astId": 34896,
        "contract": "contracts/core/LyraVault.sol:LyraVault",
        "label": "vaultState",
        "offset": 0,
        "slot": "13",
        "type": "t_struct(VaultState)37019_storage"
      },
      {
        "astId": 34899,
        "contract": "contracts/core/LyraVault.sol:LyraVault",
        "label": "feeRecipient",
        "offset": 0,
        "slot": "18",
        "type": "t_address"
      },
      {
        "astId": 34902,
        "contract": "contracts/core/LyraVault.sol:LyraVault",
        "label": "performanceFee",
        "offset": 0,
        "slot": "19",
        "type": "t_uint256"
      },
      {
        "astId": 34905,
        "contract": "contracts/core/LyraVault.sol:LyraVault",
        "label": "managementFee",
        "offset": 0,
        "slot": "20",
        "type": "t_uint256"
      },
      {
        "astId": 34909,
        "contract": "contracts/core/LyraVault.sol:LyraVault",
        "label": "____gap",
        "offset": 0,
        "slot": "21",
        "type": "t_array(t_uint256)30_storage"
      },
      {
        "astId": 36161,
        "contract": "contracts/core/LyraVault.sol:LyraVault",
        "label": "strategy",
        "offset": 0,
        "slot": "51",
        "type": "t_contract(IStrategy)36777"
      },
      {
        "astId": 36163,
        "contract": "contracts/core/LyraVault.sol:LyraVault",
        "label": "lyraRewardRecipient",
        "offset": 0,
        "slot": "52",
        "type": "t_address"
      },
      {
        "astId": 36165,
        "contract": "contracts/core/LyraVault.sol:LyraVault",
        "label": "lastQueuedWithdrawAmount",
        "offset": 0,
        "slot": "53",
        "type": "t_uint256"
      },
      {
        "astId": 36167,
        "contract": "contracts/core/LyraVault.sol:LyraVault",
        "label": "optionAllocation",
        "offset": 0,
        "slot": "54",
        "type": "t_uint256"
      }
    ],
    "types": {
      "t_address": {
        "encoding": "inplace",
        "label": "address",
        "numberOfBytes": "20"
      },
      "t_array(t_uint256)30_storage": {
        "base": "t_uint256",
        "encoding": "inplace",
        "label": "uint256[30]",
        "numberOfBytes": "960"
      },
      "t_bool": {
        "encoding": "inplace",
        "label": "bool",
        "numberOfBytes": "1"
      },
      "t_contract(IStrategy)36777": {
        "encoding": "inplace",
        "label": "contract IStrategy",
        "numberOfBytes": "20"
      },
      "t_mapping(t_address,t_mapping(t_address,t_uint256))": {
        "encoding": "mapping",
        "key": "t_address",
        "label": "mapping(address => mapping(address => uint256))",
        "numberOfBytes": "32",
        "value": "t_mapping(t_address,t_uint256)"
      },
      "t_mapping(t_address,t_struct(DepositReceipt)37026_storage)": {
        "encoding": "mapping",
        "key": "t_address",
        "label": "mapping(address => struct Vault.DepositReceipt)",
        "numberOfBytes": "32",
        "value": "t_struct(DepositReceipt)37026_storage"
      },
      "t_mapping(t_address,t_struct(Withdrawal)37031_storage)": {
        "encoding": "mapping",
        "key": "t_address",
        "label": "mapping(address => struct Vault.Withdrawal)",
        "numberOfBytes": "32",
        "value": "t_struct(Withdrawal)37031_storage"
      },
      "t_mapping(t_address,t_uint256)": {
        "encoding": "mapping",
        "key": "t_address",
        "label": "mapping(address => uint256)",
        "numberOfBytes": "32",
        "value": "t_uint256"
      },
      "t_mapping(t_uint256,t_uint256)": {
        "encoding": "mapping",
        "key": "t_uint256",
        "label": "mapping(uint256 => uint256)",
        "numberOfBytes": "32",
        "value": "t_uint256"
      },
      "t_string_storage": {
        "encoding": "bytes",
        "label": "string",
        "numberOfBytes": "32"
      },
      "t_struct(DepositReceipt)37026_storage": {
        "encoding": "inplace",
        "label": "struct Vault.DepositReceipt",
        "members": [
          {
            "astId": 37021,
            "contract": "contracts/core/LyraVault.sol:LyraVault",
            "label": "round",
            "offset": 0,
            "slot": "0",
            "type": "t_uint16"
          },
          {
            "astId": 37023,
            "contract": "contracts/core/LyraVault.sol:LyraVault",
            "label": "amount",
            "offset": 2,
            "slot": "0",
            "type": "t_uint104"
          },
          {
            "astId": 37025,
            "contract": "contracts/core/LyraVault.sol:LyraVault",
            "label": "unredeemedShares",
            "offset": 15,
            "slot": "0",
            "type": "t_uint128"
          }
        ],
        "numberOfBytes": "32"
      },
      "t_struct(VaultParams)37002_storage": {
        "encoding": "inplace",
        "label": "struct Vault.VaultParams",
        "members": [
          {
            "astId": 36997,
            "contract": "contracts/core/LyraVault.sol:LyraVault",
            "label": "decimals",
            "offset": 0,
            "slot": "0",
            "type": "t_uint8"
          },
          {
            "astId": 36999,
            "contract": "contracts/core/LyraVault.sol:LyraVault",
            "label": "cap",
            "offset": 1,
            "slot": "0",
            "type": "t_uint104"
          },
          {
            "astId": 37001,
            "contract": "contracts/core/LyraVault.sol:LyraVault",
            "label": "asset",
            "offset": 0,
            "slot": "1",
            "type": "t_address"
          }
        ],
        "numberOfBytes": "64"
      },
      "t_struct(VaultState)37019_storage": {
        "encoding": "inplace",
        "label": "struct Vault.VaultState",
        "members": [
          {
            "astId": 37004,
            "contract": "contracts/core/LyraVault.sol:LyraVault",
            "label": "round",
            "offset": 0,
            "slot": "0",
            "type": "t_uint16"
          },
          {
            "astId": 37006,
            "contract": "contracts/core/LyraVault.sol:LyraVault",
            "label": "lockedAmount",
            "offset": 2,
            "slot": "0",
            "type": "t_uint104"
          },
          {
            "astId": 37008,
            "contract": "contracts/core/LyraVault.sol:LyraVault",
            "label": "lastLockedAmount",
            "offset": 15,
            "slot": "0",
            "type": "t_uint104"
          },
          {
            "astId": 37010,
            "contract": "contracts/core/LyraVault.sol:LyraVault",
            "label": "lockedAmountLeft",
            "offset": 0,
            "slot": "1",
            "type": "t_uint256"
          },
          {
            "astId": 37012,
            "contract": "contracts/core/LyraVault.sol:LyraVault",
            "label": "totalPending",
            "offset": 0,
            "slot": "2",
            "type": "t_uint128"
          },
          {
            "astId": 37014,
            "contract": "contracts/core/LyraVault.sol:LyraVault",
            "label": "queuedWithdrawShares",
            "offset": 16,
            "slot": "2",
            "type": "t_uint128"
          },
          {
            "astId": 37016,
            "contract": "contracts/core/LyraVault.sol:LyraVault",
            "label": "nextRoundReadyTimestamp",
            "offset": 0,
            "slot": "3",
            "type": "t_uint256"
          },
          {
            "astId": 37018,
            "contract": "contracts/core/LyraVault.sol:LyraVault",
            "label": "roundInProgress",
            "offset": 0,
            "slot": "4",
            "type": "t_bool"
          }
        ],
        "numberOfBytes": "160"
      },
      "t_struct(Withdrawal)37031_storage": {
        "encoding": "inplace",
        "label": "struct Vault.Withdrawal",
        "members": [
          {
            "astId": 37028,
            "contract": "contracts/core/LyraVault.sol:LyraVault",
            "label": "round",
            "offset": 0,
            "slot": "0",
            "type": "t_uint16"
          },
          {
            "astId": 37030,
            "contract": "contracts/core/LyraVault.sol:LyraVault",
            "label": "shares",
            "offset": 2,
            "slot": "0",
            "type": "t_uint128"
          }
        ],
        "numberOfBytes": "32"
      },
      "t_uint104": {
        "encoding": "inplace",
        "label": "uint104",
        "numberOfBytes": "13"
      },
      "t_uint128": {
        "encoding": "inplace",
        "label": "uint128",
        "numberOfBytes": "16"
      },
      "t_uint16": {
        "encoding": "inplace",
        "label": "uint16",
        "numberOfBytes": "2"
      },
      "t_uint256": {
        "encoding": "inplace",
        "label": "uint256",
        "numberOfBytes": "32"
      },
      "t_uint8": {
        "encoding": "inplace",
        "label": "uint8",
        "numberOfBytes": "1"
      }
    }
  }
}